:1000000062C0000088C0000086C0000084C00000FC
:1000100082C0000080C0000025C700007CC0000036
:100020007AC0000078C0000076C0000074C00000F4
:1000300072C0000070C000006EC000006CC0000004
:100040000C94431368C000000C94A8100C94F51095
:1000500062C0000060C000005EC000005CC0000024
:100060005AC0000058C00000000000002400270013
:100070002A0000000000250028002B0000000000DE
:1000800023002600290004040404040404040202DA
:100090000202020203030303030301020408102007
:1000A0004080010204081020010204081020000012
:1000B0000007000201000003040600000000000029
:1000C00000006410671211241FBECFEFD8E0DEBF1E
:1000D000CDBF12E0A0E0B1E0E4E7FBE202C0059092
:1000E0000D92AE36B107D9F716E0AEE6B2E001C028
:1000F0001D92A537B107E1F710E0C6ECD0E004C0CF
:100100002297FE010E94B415C23CD107C9F70E9494
:1001100036130C94B81574CFFB01DC0101900D92DD
:100120000020E1F70895AEE0B0E0E9E9F0E00C94DA
:1001300089150D891E8986E08C831A8309838FEFC8
:100140009FE79E838D839E01275E3F4FCE010196E0
:100150006F89788DA9010AD02F813885020F131F6E
:10016000F80110822E96E4E00C94A515ABE0B0E007
:10017000ECEBF0E00C947B153C012B015A01FC01E7
:1001800017821682838181FD03C06FEF7FEFB9C1B3
:100190009AE0892E1E010894211C311CF301238151
:1001A000F20123FD859123FF81912F01882309F41A
:1001B000A5C1853239F423FD859123FF81912F015B
:1001C000853221F490E0B301B7D1E8CF982FFF2416
:1001D000EE249924FFE1FF15D0F09B3269F09C32A8
:1001E00028F4903259F0933291F40EC09D3249F0C8
:1001F000903369F441E024C052E0F52A84E0F82A03
:1002000028C098E0F92A25C0E0E1FE2A22C0F7FCC8
:1002100029C0892F80538A3070F4F6FE05C0989C5F
:10022000902C1124980E15C0E89CE02C1124E80EA7
:10023000F0E2FF2A0EC09E3229F4F6FC5FC140E4D2
:10024000F42A07C09C3619F450E8F52A02C0983603
:1002500049F4F20123FD959123FF91912F019923F8
:1002600009F0B8CF892F8554833018F0805283303D
:1002700038F444E050E0A40EB51E5FE359830FC08C
:10028000933631F0933779F0933509F052C01FC09F
:10029000F5018081898342E050E0A40EB51E610122
:1002A00001E010E011C0F501C080D180F6FC03C070
:1002B0006FEF7FEF02C0692D70E042E050E0A40EC6
:1002C000B51EC6012ED18C015FE7F52213C0F501E2
:1002D000C080D180F6FC03C06FEF7FEF02C0692DB4
:1002E00070E042E050E0A40EB51EC6010FD18C01B3
:1002F00050E8F52AF3FE06C018C080E290E0B30192
:100300001BD1EA948E2D90E008171907B0F30DC0A9
:10031000F601F7FC8591F7FE81916F0190E0B30142
:100320000BD1E110EA94015010400115110581F73D
:10033000E2C0943611F0993661F5F7FE08C0F50178
:10034000208131814281538184E090E00AC0F5012F
:10035000808191819C01442737FD4095542F82E094
:1003600090E0A80EB91E9FE6F92257FF09C05095EC
:100370004095309521953F4F4F4F5F4FE0E8FE2A63
:10038000CA01B901A1012AE030E002D1D82ED21869
:100390003FC0953729F41F2D1F7E2AE030E01DC095
:1003A0001F2D197F9F3661F0903720F4983509F0A2
:1003B000A5C00FC0903739F0983709F09FC004C02E
:1003C00028E030E00AC0106114FD146020E130E044
:1003D00004C014FD166020E132E017FF08C0F501EB
:1003E000608171818281938144E050E008C0F50111
:1003F00080819181BC0180E090E042E050E0A40E59
:10040000B51EA101C5D0D82ED2188FE7F82EF12243
:10041000F6FE0BC05EEFF522D91438F4F4FE07C0E7
:10042000F2FC05C08FEEF82202C01D2D01C0192D6F
:10043000F4FE0DC0FE01ED0DF11D8081803319F435
:1004400099EEF92208C01F5FF2FE05C003C08F2D90
:10045000867809F01F5F0F2DF3FC13C0F0FE0EC06D
:100460001E1510F09D2C0AC09D2C9E0C911A1E2D5D
:1004700005C080E290E0B3015FD01F5F1E15C8F396
:1004800004C01E1510F4E11A01C0EE2404FF0EC0D2
:1004900080E390E0B30150D002FF1BC001FD03C018
:1004A00088E790E00EC088E590E00BC0802F86784A
:1004B00081F001FF02C08BE201C080E2F7FC8DE217
:1004C00090E0B30139D005C080E390E0B30134D0AF
:1004D0009A94D914C8F3DA94F101ED0DF11D8081DD
:1004E00090E0B30129D0DD20B1F705C080E290E0B3
:1004F000B30122D0EA94EE20C9F750CEF301668111
:100500007781CB012B96E2E10C949715FC010590C5
:10051000615070400110D8F7809590958E0F9F1F05
:100520000895FC016150704001900110D8F780954A
:1005300090958E0F9F1F08950F931F93CF93DF9376
:100540008C01EB018B8181FF1BC082FF0DC02E81CE
:100550003F818C819D812817390764F4E881F981F6
:100560000193F983E88306C0E885F985802F099512
:10057000892B31F48E819F8101969F838E8302C0E7
:100580000FEF1FEFC801DF91CF911F910F910895D9
:10059000FA01AA27283051F1203181F1E8946F93B4
:1005A0006E7F6E5F7F4F8F4F9F4FAF4FB1E03ED05A
:1005B000B4E03CD0670F781F891F9A1FA11D680FF8
:1005C000791F8A1F911DA11D6A0F711D811D911D2B
:1005D000A11D20D009F468943F912AE0269F1124A0
:1005E0003019305D3193DEF6CF010895462F477004
:1005F000405D4193B3E00FD0C9F7F6CF462F4F705F
:10060000405D4A3318F0495D31FD4052419302D0BC
:10061000A9F7EACFB4E0A695979587957795679562
:10062000BA95C9F700976105710508959B01AC0162
:100630000A2E06945795479537952795BA95C9F789
:10064000620F731F841F951FA01D0895AF92BF9264
:10065000CF92DF92EF92FF920F931F938C01C12EE6
:1006600098E7A92E95E0B92EC50163E070E0412F0F
:100670000E945810DD24EE24FF24FE2CED2CDC2CEF
:10068000CC240C191D09C50164E070E0402F0E94C4
:1006900058101F910F91FF90EF90DF90CF90BF9077
:1006A000AF9008956F927F928F929F92AF92BF9278
:1006B000CF92DF92EF92FF920F931F935A016B013B
:1006C000272F332744275527E22E882E992478E7B1
:1006D000672E75E0772EC301B401422F0E94581097
:1006E000FF2400E010E01E2D0027FF24EE24AE18AA
:1006F000BF08C00AD10A960144275527E22E089464
:10070000811C911CC301B401422F0E945810FF2488
:1007100000E010E08701FF24EE24AE18BF08C00AF5
:10072000D10A55274D2D3C2D2B2DE22E0894811CEE
:10073000911CC301B401422F0E9458100894811CDF
:10074000911CFF2400E010E0102F0F2DFE2CEE2452
:10075000AE18BF08C00AD10AC301B4014A2D0E94D5
:1007600058101F910F91FF90EF90DF90CF90BF90A6
:10077000AF909F908F907F906F9008950F931F93ED
:10078000DF93CF93CDB7DEB72B970FB6F894DEBFCC
:100790000FBECDBF8AE0BE016F5F7F4F77D38DB7AD
:1007A0009EB740970FB6F8949EBF0FBE8DBFEDB7B2
:1007B000FEB731960FE612E0ADB7BEB712961C93A6
:1007C0000E93119780E091E0938382838D818483DF
:1007D00015828C81868317828E819F819187808785
:1007E0008B81828713868A81848715868981868793
:1007F000178699DC8DB79EB740960FB6F8949EBFCA
:100800000FBE8DBF8AE496E0B8010E9425132B9697
:100810000FB6F894DEBF0FBECDBFCF91DF911F9111
:100820000F9108958AE496E06FE672E00C9423132A
:1008300087E061E00E946C1488E061E00E946C1423
:1008400089E060E00E946C1468E873E180E090E069
:100850000E94991388E795E060E070E041E00E9413
:10086000581087E060E00E946C1488E060E00E940D
:100870006C1484DF8FE692E06EE171E04DDCD2CF44
:1008800087E061E00E946C1488E060E00E946C14D4
:1008900089E061E00E946C1468E873E180E090E018
:1008A0000E94991388E795E060E070E040E00E94C4
:1008B000581087E060E00E946C1489E060E00E94BC
:1008C0006C145CDF8FE692E06DE271E025DCAACF6C
:1008D000CF93DF9388E795E062E070E00E945110CB
:1008E0008F3099F0C0E1D0E088E795E0BE0140E0AC
:1008F0000E9458102196CC3FD105B1F788E795E0CA
:1009000062E070E04FE00E94581038DF8FE692E01E
:100910006CE371E001DC86DFDF91CF9108950F93E6
:100920001F9386DFD5DF08E715E0C80161E070E0BE
:1009300040E00E94581080E090E088DEC80165E049
:1009400070E040E00E94581019DF8FE692E06AE400
:1009500071E0E2DB67DF1F910F9108950FDF88E7F9
:1009600095E061E070E00E945110813051F08130DB
:1009700018F0823081F40AC08FE692E068E571E0F9
:1009800009C08FE692E062E771E004C08FE692E072
:1009900062EC71E0C1DB46CF2F923F924F925F92A3
:1009A0006F927F928F929F92AF92BF92CF92DF927F
:1009B000EF92FF920F931F93882E992418E7212E10
:1009C00015E0312EC101B4010E945110E82E0894A7
:1009D000811C911CC101B4010E945110482E089441
:1009E000811C911CC101B4010E945110A82E0894D1
:1009F000811C911CC101B4010E945110FF2400E030
:100A000010E01E2D0027FF24EE24552466247724B1
:100A1000320155244424E40CF51C061D171DE80E74
:100A2000F11C011D111DBB24CC24DD24DC2CCB2C9E
:100A3000BA2CAA24EA0CFB1C0C1D1D1DB701C80111
:100A40001F910F91FF90EF90DF90CF90BF90AF90EC
:100A50009F908F907F906F905F904F903F902F90DE
:100A60000895CF92DF92EF92FF920F931F93CF934F
:100A7000DF9388E795E062E070E00E945110082F54
:100A80007DDE8FE692E060E172E046DBCBDE0F3088
:100A900061F010E1C4E0D0E06FE6C62E62E0D62E31
:100AA00054E2E52E52E0F52E3CC08FE692E06DE177
:100AB00072E032DBB7DE37C0812F90E08370907038
:100AC000892B69F55BDE812F67DF2DB73EB72A5092
:100AD00030400FB6F8943EBF0FBE2DBFEDB7FEB746
:100AE0003196ADB7BEB71296DC92CE921197F382D3
:100AF000E2829E0135952795359527953583248388
:100B000066837783808791870EDB2DB73EB7265F9C
:100B10003F4F0FB6F8943EBF0FBE2DBF83DE1F5F61
:100B20002196101748F22ADE8FE692E06CE272E01E
:100B3000F3DA78DEDF91CF911F910F91FF90EF9064
:100B4000DF90CF9008953F924F925F926F927F9285
:100B50008F929F92AF92BF92CF92DF92EF92FF92CD
:100B60000F931F93DF93CF93CDB7DEB72B970FB6BD
:100B7000F894DEBF0FBECDBF10926E0286E00E94D9
:100B8000C014892B09F0CBDE82E00E94C014892BAF
:100B900009F0AFC083E00E94C014892B09F4F7C0AC
:100BA00067D25B016C0188E795E062E070E00E942B
:100BB0005110182F8AE0BE016F5F7F4F67D11B3F36
:100BC00010F04FDF85DE88E795E062E070E00E947C
:100BD0005110182F8F5FB601A50164DD1C5F88E7F7
:100BE00095E062E070E0412F0E94581088E795E0A0
:100BF00061E070E00E945110882309F0C8C088E7C6
:100C000095E063E070E00E945110382E88E795E08F
:100C100064E070E00E945110482E88E795E062E0A1
:100C200070E00E9451108350B7DE5B016C0188E7D1
:100C300095E062E070E00E9451108750ADDE3B010C
:100C40004C0188E0A9DE7B018C0188E795E065E036
:100C500070E00E945110582ED601C5018E199F09CF
:100C6000A00BB10B80589145A140B04040F088E006
:100C7000B601A50117DD80E090E0E8DC0FC0042D8F
:100C800010E00F5F1F4F932D80E0080F191FC80160
:100C9000DDDC085E134010F041E01FC0A618B70865
:100CA000C808D9082DE3A216B104C104D10468F420
:100CB000152D1F5F88E795E065E070E0412F0E94E9
:100CC0005810183748F042E008C088E795E065E022
:100CD00070E040E00E94581040E040936E024423D0
:100CE00009F455C088E795E061E070E00E94581073
:100CF000C7DDB7DE33DEECDD4AC08AE496E00E9451
:100D0000EC118C36E1F08D3640F4883681F18B366B
:100D100081F1833609F03BC00EC0813761F3823721
:100D200018F48F36A1F509C0823719F0863779F5A6
:100D300008C0F5DD2CC0A4DD2AC07ADD28C00EDE97
:100D400026C01CDD88E795E060E070E00E9451104D
:100D5000882319F08130D1F405C08FE692E06DE26E
:100D600071E013C08FE692E065E372E00EC079DEB9
:100D70000EC088E795E061E070E040E00E94581006
:100D8000FDDC8FE692E062E472E0C6D94BDD8AE4D6
:100D900096E00E94BB11892B09F0AFCF8AE496E060
:100DA0000E9415122B960FB6F894DEBF0FBECDBF72
:100DB000CF91DF911F910F91FF90EF90DF90CF9037
:100DC000BF90AF909F908F907F906F905F904F906B
:100DD0003F90089587E061E00E942D1488E061E073
:100DE0000E942D1489E061E00E942D1484E061E0EE
:100DF0000E942D148AE061E00E942D1482E060E0E0
:100E00000E942D1483E060E00E942D1487E060E0D2
:100E10000E946C1488E060E00E946C1489E060E03D
:100E20000E946C1484E061E00E946C148AE061E02E
:100E30000E946C1486E062E00E942D148AE0A4D126
:100E40008AE496E040E855E260E070E026E00E9427
:100E500030118AE496E00E9465128823D1F3109243
:100E60006E0208951F920F920FB60F9211248F9366
:100E700088E10FB6F89480936000109260000FBE76
:100E80008F910F900FBE0F901F9018959F92AF9269
:100E9000BF92CF92DF92EF92FF920F931F93DF9357
:100EA000CF93CDB7DEB727970FB6F894DEBF0FBE4E
:100EB000CDBFA82E7B016E010894C11CD11CBB24A0
:100EC00000E09AE0992E8A2D60E00E946C140EBD1D
:100ED0000DB407FEFDCF8EB51EBC0DB407FEFDCFD1
:100EE0001EB58A2D61E00E946C14212F2F700530F1
:100EF00071F4812F8F7182958F70899DC0011124AB
:100F0000280F2E83B12EBB1CBB24BB1C08C012951E
:100F10001F70199DC0011124280FD6012C930F5F5B
:100F20000894C11CD11C073071F68F81B1E0BB164B
:100F300029F4282F30E02053384F04C0282F30E008
:100F40002459384F8981F70180838A8181838B817D
:100F500082838D8183831E811483368325838C81D4
:100F600087838F81828741E020E030E032C0842F88
:100F700090E001978630910531F18730910594F426
:100F800083309105E9F08430910534F48130910586
:100F9000B9F00297E9F41AC084309105A1F00597E1
:100FA000B9F40EC08930910571F08930910544F093
:100FB0008B30910541F08B30910514F00C9741F482
:100FC000215E3F4F05C0225E3F4F02C0245E3F4F6F
:100FD0004F5F141760F6D7011596ED91FC911697A7
:100FE000CF0183709070892B49F5CF0164E670E0E2
:100FF0000E944615892B11F1C42EDD24CE16DF0682
:1010000049F41430C8F4133029F4D70113968C91A5
:101010008D3191F0CF0160E971E00E944615892B76
:1010200069F4CE16DF0651F4143030F4133031F485
:10103000F70183818D3111F42F5F3F4FD701139654
:101040008C911397280F311D18962C9327960FB665
:10105000F894DEBF0FBECDBFCF91DF911F910F91EE
:10106000FF90EF90DF90CF90BF90AF909F9008954A
:10107000BF92CF92DF92EF92FF920F931F93DF9375
:10108000CF93CDB7DEB72B970FB6F894DEBF0FBE68
:10109000CDBF8AE0BE016F5F7F4FF8DECE80DF807C
:1010A000BB2422EB37E016C0C90183709070892BF6
:1010B00079F4C90164E670E00E943215892B39F495
:1010C000C90160E971E00E943215892B09F4B394DB
:1010D0002F5F3F4F2C153D0538F36B8170E080E0AA
:1010E00090E020E13EE040E050E00E9413157B01DB
:1010F0008C016A8170E080E090E02CE330E040E019
:1011000050E00E941315E60EF71E081F191F898173
:10111000E80EF11C011D111D8EE498EFC80ED91EBA
:10112000B601882777FD8095982F20E833E341EEBC
:1011300051E00E941315E60EF71E081F191FBA94FE
:10114000698570E06B0D711D882777FD8095982F5C
:1011500020E831E541E050E00E941315E60EF71E4D
:10116000081F191FB701C8012B960FB6F894DEBFF0
:101170000FBECDBFCF91DF911F910F91FF90EF90E8
:10118000DF90CF90BF90089561E00E942D14CDD7DD
:1011900081E0BDD784E0C4D76AE070E080E090E0F1
:1011A0000C949913FF920F931F93CF93DF938B01AE
:1011B0000E948B13EB01FF24FA94FEBC0DB407FED2
:1011C000FDCF8EB58F3F11F481E008C00E948B13D4
:1011D0006C1B7D0B6017710780F380E0DF91CF916E
:1011E0001F910F91FF900895FC01848160E00C94A1
:1011F0006C14FC01848161E00C946C14DC016EBD04
:10120000FA0120E030E00DB407FEFDCF80818EBDF5
:101210000DB407FEFDCF81818EBD2E5F3F4F32960C
:1012200082E02030380779F70DB407FEFDCF8FEF4D
:101230008EBD0DB407FEFDCF8FEF8EBD0DB407FE42
:10124000FDCF8FEF8EBD0DB407FEFDCF8EB51A9684
:101250008C931A978F71853011F481E0089581E1A4
:1012600015968C931597CD01C4DF80E00895FF9209
:101270000F931F93CF93DF93EC010E948B138B018D
:10128000FF24FA9409C00E948B13601B710B6D52EE
:10129000714010F08FE00DC0FEBC0DB407FEFDCF15
:1012A0008EB58A878F3F79F38E3F11F481E005C0B8
:1012B0008DE08D83CE019DDF80E0DF91CF911F9186
:1012C0000F91FF900895CF93DF93EC018E818823D7
:1012D000C9F08FEF8EBD2F8138854FEF04C00DB45C
:1012E00007FEFDCF4EBD2F5F3F4FC90101978150D3
:1012F0009240A8F338872F830DB407FEFDCFCE01AF
:1013000078DF1E82DF91CF910895DF92EF92FF92F6
:101310000F931F93CF93DF93EC01D62E79018A01AF
:10132000D2DFCE0161DFCE016CE271E03BDF8D2DBB
:1013300080648EBD0DB407FEFDCF28E130E0D801FA
:10134000C701022E04C0B695A795979587950A9474
:10135000D2F78EBD0DB407FEFDCF285030408FEF81
:10136000283F380761F7DD2011F485E906C088E0E1
:10137000D81611F487E801C08FEF8EBD0DB407FEBB
:10138000FDCF90E02FEF2EBD0DB407FEFDCF8EB543
:1013900087FF02C09150B9F78A87DF91CF911F91E3
:1013A0000F91FF90EF90DF900895CF92DF92EF9230
:1013B000FF920F931F93CF93DF93EC017A018B0180
:1013C0006901411551056105710511F482E133C0D0
:1013D0008B85833039F029E0EE0CFF1C001F111FB4
:1013E0002A95D1F7CE0168E1A80197018EDF882305
:1013F00011F084E020C0CE016EEFA601FFDE88234D
:10140000D9F0CE0168E572E0CDDE882311F485E1E4
:1014100012C0CE016DE020E030E040E050E075DF2A
:10142000882341F48FEF8EBD0DB407FEFDCF8EB53E
:10143000882371F084E18D83CE01DBDE80E0DF91D3
:10144000CF911F910F91FF90EF90DF90CF90089573
:10145000CE01CFDE81E0F3CF8F929F92AF92BF9209
:10146000CF92DF92EF92FF920F931F93CF93DF9370
:10147000EC015A016B0149010115110509F477C00E
:10148000C801820F931F8150924008F06CC08E817A
:10149000882371F088819981AA81BB8148175907F7
:1014A0006A077B0729F48F8198858816990608F5C5
:1014B000A882B982CA82DB828B85833039F069E0E9
:1014C000AA0CBB1CCC1CDD1C6A95D1F7CE0161E1D6
:1014D000A60195011ADF882319F083E08D8343C0AC
:1014E000CE01C5DE882309F43EC018861F8281E044
:1014F0008E838FEF8EBD8F8198852FEF05C00DB441
:1015000007FEFDCF2EBD019688159905C0F398877B
:101510008F83D801119720E030E09FEF0BC00DB40E
:1015200007FEFDCF8EB5F701E20FF31F80839EBD4E
:101530002F5F3F4F2A173B0790F30DB407FEFDCFF7
:101540008EB5AE0DBF1D8C932F813885200F311FB6
:1015500038872F838985882319F02050324038F04E
:10156000CE01B1DE04C0CE0144DE80E001C081E0E6
:10157000DF91CF911F910F91FF90EF90DF90CF906F
:10158000BF90AF909F908F900895EF92FF920F932E
:101590001F93790120E030E000E012E05DDF1F9151
:1015A0000F91FF90EF9008956F927F928F929F928C
:1015B000AF92BF92CF92DF92EF92FF920F931F9361
:1015C000CF93DF93EC017A018B012D81222309F463
:1015D0007FC08B899C89AD89BE8984179507A60732
:1015E000B70708F475C084C0E114F10401051105C2
:1015F00049F41E821F82188619861A861B861C864D
:101600001D8664C02A853B854C855D85EB8DFC8DF0
:10161000858590E009962150304040405040390186
:101620004A01082E04C096948794779467940A948C
:10163000D2F72F5F3F4F4F4F5F4F0894E108F108FB
:10164000010911095701680104C0D694C794B794E1
:10165000A7948A95D2F70894E11CF11C011D111D75
:10166000A614B704C804D90428F021153105410592
:10167000510549F48F89988DA98DBA8D8E839F83EA
:10168000A887B98715C0A618B708C808D90810C018
:101690004E815F81688579858B8D9C8D940184D383
:1016A0000894A108B108C108D108882331F410C0FA
:1016B00086E0882E912C8C0E9D1EA114B104C104CD
:1016C000D10431F7EA86FB860C871D8781E001C0D3
:1016D00080E0DF91CF911F910F91FF90EF90DF900D
:1016E000CF90BF90AF909F908F907F906F90089514
:1016F000223009F079CFE6CFCF93DF93EC01462F6C
:101700006E857F85888999897BD2882319F420E0AA
:1017100030E00AC08A89282F30E095E0220F331F7D
:101720009A95E1F72F583C4FC901DF91CF91089569
:101730000F931F93CF93DF938C01FC018581882346
:10174000C9F1848187FF34C0C80161E0D5DFEC01B5
:10175000009781F1F8018581823040F48389948972
:10176000A589B6898C8F9D8FAE8FBF8FF801878931
:10177000908D9B8F8A8F8789908DA18DB28DCD01A1
:10178000AA27BB279D8B8C8BE0916F03F091700390
:10179000309751F0BE016A5E7F4FCE0148960995A1
:1017A000888D998D9B8B8A8BF80184818F778483B8
:1017B000EED101C080E0DF91CF911F910F9108958C
:1017C000CF93DF93EC019C012A5F3F4F8B8D9C8D63
:1017D00041E050E060E070E059D38823A1F08F89A8
:1017E000988DA98DBA8D0097A105B10559F48E8108
:1017F0009F81A885B9858F8B988FA98FBA8F8C818F
:1018000080688C8381E0DF91CF9108952F923F9281
:101810004F925F927F928F929F92AF92BF92CF92A0
:10182000DF92EF92FF920F931F93DF93CF9300D03D
:1018300000D000D0CDB7DEB76C01162F072F5E8326
:101840004D83DC0115968C911597813009F069C1A3
:1018500014968C9181FF65C187C1F6014389548933
:101860006589768982859385A485B58584179507D2
:10187000A607B70729F0C60197DE882309F451C1EE
:10188000812F902F9C0129012D803E8012C1D6010D
:101890005B96ED91FC915C97DA01C90119E0B69570
:1018A000A795979587951A95D1F774807A947822A1
:1018B0007FEF872E71E0972E82229322772009F006
:1018C0004CC08114910409F048C0D60116964D9180
:1018D0005D916D917C9119974115510561057105D7
:1018E00081F457968D919D910D90BC91A02D0097FC
:1018F000A105B10541F1F60186839783A087B187E1
:101900002CC0CF019E012F5F3F4F4ED2882309F498
:101910000FC129813A814B815C81D6015B96ED91A3
:10192000FC915C978789803129F088EF9FEFAFEFBA
:10193000BFE004C088EF9FEFA0E0B0E028173907B0
:101940004A075B0728F0C6013BDF882331F4E9C072
:10195000F601268337834087518780E092E088191B
:10196000990951018215930508F45C01D6015B9633
:10197000ED91FC915C971696ED90FD900D911C9168
:1019800019978EEF9FEFAFEFBFEFE80EF91E0A1F1A
:101990001B1F058404C0EE0CFF1C001F111F0A94BE
:1019A000D2F786859785A089B189E80EF91E0A1FAE
:1019B0001B1FE70CF11C011D111D90E0A91692E000
:1019C000B90649F58091510290915202A0915302BB
:1019D000B09154028E159F05A007B10761F48FEFF7
:1019E0009FEFAFEFBFEF8093510290935202A0930D
:1019F0005302B09354028091710590917205B80121
:101A0000A7019201D2DC882309F48BC0A0E0B2E0E8
:101A10004A0E5B1E3CC08114910401F5F60122853B
:101A200033854485558583899489A589B689281786
:101A300039074A075B0790F0AAD0882309F471C0E0
:101A4000E0925102F092520200935302109354021A
:101A50008091730581608093730507C0C801B70149
:101A600041E0CED0882309F45CC094012F583C4F4C
:101A7000A9014A0D5B1DD201F90102C08D9181932C
:101A8000E417F507D9F7E21BF30B4E0E5F1E2A1879
:101A90003B08950140E050E0F60182859385A485DE
:101AA000B585820F931FA41FB51F82879387A487D4
:101AB000B587D6011A962D913D914D915C911D9758
:101AC0002114310409F0E3CE53968D919D910D9030
:101AD000BC91A02D82179307A407B50748F4F6011F
:101AE000238B348B458B568B84818068848311C013
:101AF00080916F0390917003892B59F08D819E81A5
:101B0000892B39F0D60114968C911497806814961D
:101B10008C93F601848183FF0DC0C60109DE882302
:101B200049F481E090E0D60113969C938E9312972E
:101B30001E821D828D819E8126960FB6F894DEBF8F
:101B40000FBECDBFCF91DF911F910F91FF90EF900E
:101B5000DF90CF90BF90AF909F908F907F905F90DD
:101B60004F903F902F90089582FD77CE89CEDF93DE
:101B7000CF930F92CDB7DEB76983BE016F5F7F4F02
:101B800041E050E043DE0F90CF91DF9108958091C6
:101B90007305882389F1409151025091520260915E
:101BA000530270915402809171059091720521E762
:101BB00033E0FBDB882311F14091740550917505EA
:101BC00060917605709177054115510561057105A4
:101BD00089F0809171059091720521E733E0E5DB92
:101BE000882361F0109274051092750510927605A5
:101BF000109277051092730581E0089580E00895B2
:101C0000DF92EF92FF920F931F937B018C01D42EF2
:101C10008091510290915202A0915302B0915402CE
:101C20008E159F05A007B107B1F0B1DF8823D1F071
:101C30008091710590917205B801A70121E733E009
:101C4000A4DC882379F0E0925102F09252020093D2
:101C5000530210935402809173058D29809373056C
:101C600081E001C080E01F910F91FF90EF90DF9025
:101C700008954F925F926F927F928F929F92AF9250
:101C8000BF92CF92DF92EF92FF920F931F93CF9369
:101C9000DF93EC016A017B012801390142305105D3
:101CA0006105710508F46EC089859A85AB85BC8590
:101CB0000196A11DB11D84179507A607B70708F463
:101CC00061C02B893C894D895E898F89803129F4D7
:101CD00099278F2D7E2D6D2D09C0C701B60117E004
:101CE00096958795779567951A95D1F74B015C0185
:101CF000820E931EA41EB51E809151029091520235
:101D0000A0915302B091540288169906AA06BB0608
:101D100031F0C501B40140E073DF882399F18F8968
:101D2000803149F4F601F070EE0FFF1FEF58FC4FC1
:101D3000518240820DC0F601EF77F070EE0FFF1F69
:101D4000EE0FFF1FEF58FC4F408251826282738278
:101D5000809173058160809373058A89823080F059
:101D60008D819E81AF81B885880E991EAA1EBB1EEB
:101D70008092740590927505A0927605B0927705D1
:101D800081E001C080E0DF91CF911F910F91FF9022
:101D9000EF90DF90CF90BF90AF909F908F907F900B
:101DA0006F905F904F900895CF92DF92EF92FF92E5
:101DB0000F931F93CF93DF93EC017A018B0169019D
:101DC00089859A85AB85BC850196A11DB11D8417B7
:101DD0009507A607B70708F44FC02B893C894D89A2
:101DE0005E898F89803129F49927812F702F6F2D7B
:101DF00009C0C801B701E7E0969587957795679583
:101E0000EA95D1F7260F371F481F591F80915102BD
:101E100090915202A0915302B091540228173907B1
:101E20004A075B0731F0CA01B90140E0E9DE8823C7
:101E300019F18F89803159F4F701F070EE0FFF1F0F
:101E4000EF58FC4F80819181A0E0B0E00EC0F70117
:101E5000EF77F070EE0FFF1FEE0FFF1FEF58FC4FF4
:101E600080819181A281B381BF70F60180839183CB
:101E7000A283B38381E001C080E0DF91CF911F9105
:101E80000F91FF90EF90DF90CF9008952F923F92A7
:101E90004F925F926F927F928F929F92AF92BF927A
:101EA000CF92DF92EF92FF920F931F93DF93CF9326
:101EB000CDB7DEB72F970FB6F894DEBF0FBECDBFFC
:101EC0001C014A875B876C877D873F872E87D901F6
:101ED0000D911D912D913C910115110521053105A3
:101EE00049F0480159010894811C911CA11CB11CA6
:101EF000198610C0FC0180809180A280B380198671
:101F00008A859B85AC85BD850197A105B10511F436
:101F100091E09987D10119968D919D910D90BC9179
:101F2000A02D0196A11DB11D8D839E83AF83B8871F
:101F3000750164014424552432018E010F5F1F4F47
:101F4000F10181859285A385B485481659066A06F4
:101F50007B0608F08CC08D819E81AF81B8858C1581
:101F60009D05AE05BF0550F482E0882E912CA12C72
:101F7000B12CB2E0CB2ED12CE12CF12CC101B70158
:101F8000A601980111DF882309F471C089819A8123
:101F9000AB81BC81A70196012F5F3F4F4F4F5F4F31
:101FA0000097A105B10519F049015A010DC0281982
:101FB00039094A095B098A859B85AC85BD85281747
:101FC00039074A075B0759F00894411C511C611CF2
:101FD000711C0894C11CD11CE11CF11CB1CFC101C2
:101FE000A601B7010FEF1FEF2FEF3FE042DE88237E
:101FF00091F43DC026013701089441085108610859
:102000007108C101B301A2019701860132DE882364
:1020100071F1730162018C149D04AE04BF0450F38E
:10202000AE85BF854D915D916D917C9141155105B6
:102030006105710531F0C101950184011ADE882323
:10204000B1F0EE85FF8580829182A282B382F9850C
:10205000FF2359F00894811C911CA11CB11CD101D3
:102060008D929D92AD92BC92139781E001C080E069
:102070002F960FB6F894DEBF0FBECDBFCF91DF9184
:102080001F910F91FF90EF90DF90CF90BF90AF9096
:102090009F908F907F906F905F904F903F902F9088
:1020A0000895F999FECF72BD61BDF89A80B5089583
:1020B000F999FECF1FBA72BD61BD40BD0FB6F8944D
:1020C000FA9AF99A0FBE089510927E0510927F0534
:1020D000109282051092840582E090E0A0E0B0E0CA
:1020E0008093850590938605A0938705B093880516
:1020F00010929C051092A6051092A50589E592E024
:102100009093A4058093A3051092A80508958823B1
:1021100019F48CB5806202C08CB58F7D8CBD08959A
:102120009CB5937F982B9CBD08958AE061E0D4D341
:102130008AE061E092D38CB580618CBD8CB58064FF
:102140008CBD8DE061E089D38BE061E086C30895AA
:102150001F920F920FB60F9211242F933F934F931C
:102160008F939F93EF93FF938091C00082FD1DC0DA
:102170004091C60020910206309103062F5F3F4F29
:102180002F73307080910406909105062817390747
:1021900071F0E0910206F0910306EE53FA4F40838E
:1021A000309303062093020602C08091C600FF917F
:1021B000EF919F918F914F913F912F910F900FBE73
:1021C0000F901F901895E0915606F0915706E05C2D
:1021D000FF4F8191919120813181821B930B8F73ED
:1021E0009070892B09F0B3CF08951F920F920FB60C
:1021F0000F9211242F933F938F939F93EF93FF930D
:1022000020914606309147068091480690914906F4
:102210002817390731F48091C1008F7D8093C10068
:1022200014C0E0914806F0914906EA5FF94F208119
:10223000809148069091490601968F739070909313
:102240004906809348062093C600FF91EF919F9125
:102250008F913F912F910F900FBE0F901F90189567
:10226000AF92BF92CF92DF92EF92FF920F931F93A4
:10227000CF93DF93EC017A018B01C22EDD24403035
:1022800081EE580780E0680780E0780711F0DD24D0
:10229000D39471E0A72EB12CEC89FD89DD2069F083
:1022A000C50108A002C0880F991F0A94E2F7808335
:1022B00060E079E08DE390E005C0108260E874E8AA
:1022C0008EE190E0A8019701F4D3215030404040C6
:1022D0005040569547953795279580E1203038072F
:1022E00020F0DD2011F0DD24D7CFE889F989308393
:1022F000EA89FB892083E88DF98DC082EE89FF8908
:10230000408121E030E0C9010C8C02C0880F991F88
:102310000A94E2F7482B4083EE89FF894081C90186
:102320000D8C02C0880F991F0A94E2F7482B408356
:10233000EE89FF894081C9010E8C02C0880F991F68
:102340000A94E2F7482B4083EE89FF8980810F8C45
:1023500002C0220F331F0A94E2F72095282320831E
:10236000DF91CF911F910F91FF90EF90DF90CF9071
:10237000BF90AF900895DC011C96ED91FC911D97E4
:10238000E05CFF4F2191319180819181281B390BB5
:102390002F733070C9010895DC011C96ED91FC91FA
:1023A0001D97E05CFF4F20813181E054F040DF0158
:1023B000AE5BBF4F8D919C9111972817390719F487
:1023C0002FEF3FEF07C08D919C91E80FF91F80819F
:1023D000282F30E0C9010895DC011C96ED91FC9195
:1023E0001D97E05CFF4F20813181E054F040DF0118
:1023F000AE5BBF4F8D919C9111972817390719F447
:102400002FEF3FEF10C08D919C911197E80FF91FAE
:1024100020818D919C91119701968F7390701196E8
:102420009C938E9330E0C9010895DC0191968C91C4
:102430009197882339F05496ED91FC9155978081BE
:1024400086FFF9CF91961C920895CF93DF93EC010C
:10245000EE85FF85E05CFF4F20813181E054F04044
:102460002F5F3F4F2F733070DF01AE5BBF4F8D91F9
:102470009C91119728173907D1F3E05CFF4F8081B9
:102480009181E054F040E80FF91F6083EE85FF85ED
:10249000E05CFF4F31832083EE89FF89208181E05A
:1024A00090E00F8C02C0880F991F0A94E2F7282B46
:1024B000208381E089A3EC89FD8980818064808309
:1024C00081E090E0DF91CF91089581E0089510922E
:1024D0004D0610924C0688EE93E0A0E0B0E08093A9
:1024E0004E0690934F06A0935006B093510681E696
:1024F00092E090934B0680934A0682EC95E090938D
:1025000057068093560686E096E09093590680938E
:10251000580685EC90E090935B0680935A0684EC15
:1025200090E090935D0680935C0680EC90E0909341
:102530005F0680935E0681EC90E090936106809345
:10254000600682EC90E0909363068093620686ECCE
:1025500090E0909365068093640684E0809366061D
:1025600083E08093670687E08093680685E0809328
:10257000690681E080936A060895CF92DF92EF9218
:10258000FF920F931F93CF93DF937C016B018A011E
:10259000C0E0D0E00FC0D6016D916D01D701ED9183
:1025A000FC910190F081E02DC7010995C80FD91F5A
:1025B000015010400115110571F7CE01DF91CF9147
:1025C0001F910F91FF90EF90DF90CF900895EF92C1
:1025D000FF920F931F938C01DC01ED91FC91019010
:1025E000F081E02D6DE009957C01D801ED91FC9121
:1025F0000190F081E02DC8016AE009959C012E0D43
:102600003F1DC9011F910F91FF90EF900895CF9347
:10261000DF93EC016115710519F420E030E00FC083
:10262000DB010D900020E9F71197A61BB70BE8819D
:10263000F9810280F381E02DAD0109959C01C9016A
:10264000DF91CF910895E3CF0895EF92FF920F931A
:102650001F937C01DCDF8C01C701B9DF080F191F54
:10266000C8011F910F91FF90EF900895CF93DF93D2
:10267000B9D00E94EA06C3EED0E10E94A3052097DC
:10268000E1F3A1DDFACF1F920F920FB60F92112442
:102690002F933F938F939F93AF93BF938091700637
:1026A00090917106A0917206B091730630917406F4
:1026B0000196A11DB11D232F2D5F2D3720F02D5721
:1026C0000196A11DB11D209374068093700690930E
:1026D0007106A0937206B093730680916C06909178
:1026E0006D06A0916E06B0916F060196A11DB11DF9
:1026F00080936C0690936D06A0936E06B0936F0660
:10270000BF91AF919F918F913F912F910F900FBEED
:102710000F901F9018958FB7F89420917006309104
:10272000710640917206509173068FBFB901CA01BC
:1027300008959B01AC017FB7F89480916C0690914D
:102740006D06A0916E06B0916F0666B5A89B05C098
:102750006F3F19F00196A11DB11D7FBFBA2FA92FA0
:10276000982F8827860F911DA11DB11D62E0880F4B
:10277000991FAA1FBB1F6A95D1F7BC012DC0FFB7D7
:10278000F89480916C0690916D06A0916E06B091C0
:102790006F06E6B5A89B05C0EF3F19F00196A11D95
:1027A000B11DFFBFBA2FA92F982F88278E0F911D1B
:1027B000A11DB11DE2E0880F991FAA1FBB1FEA955A
:1027C000D1F7861B970B885E9340C8F221503040AA
:1027D0004040504068517C4F21153105410551055D
:1027E00071F60895789484B5826084BD84B5816063
:1027F00084BD85B5826085BD85B5816085BDEEE609
:10280000F0E0808181608083E1E8F0E010828081E7
:1028100082608083808181608083E0E8F0E0808155
:1028200081608083E1EBF0E0808184608083E0EB75
:10283000F0E0808181608083EAE7F0E0808184605D
:1028400080838081826080838081816080838081B9
:10285000806880831092C1000895CF93DF93482F42
:1028600050E0CA0186569F4FFC0134914A575F4F92
:10287000FA018491882369F190E0880F991FFC0187
:10288000E859FF4FA591B491FC01EE58FF4FC59157
:10289000D491662351F42FB7F8948C91932F90958F
:1028A00089238C93888189230BC0623061F42FB710
:1028B000F8948C91932F909589238C938881832B06
:1028C00088832FBF06C09FB7F8948C91832B8C937D
:1028D0009FBFDF91CF910895482F50E0CA018255E4
:1028E0009F4FFC012491CA0186569F4FFC01949191
:1028F0004A575F4FFA013491332309F440C0222331
:1029000051F1233071F0243028F42130A1F022302D
:1029100011F514C02630B1F02730C1F02430D9F4BD
:1029200004C0809180008F7703C0809180008F7DEC
:102930008093800010C084B58F7702C084B58F7DEE
:1029400084BD09C08091B0008F7703C08091B00032
:102950008F7D8093B000E32FF0E0EE0FFF1FEE5865
:10296000FF4FA591B4912FB7F894662321F48C9171
:102970009095892302C08C91892B8C932FBF089549
:10298000682F70E0CB0182559F4FFC012491CB0151
:1029900086569F4FFC0144916A577F4FFB019491EB
:1029A000992319F420E030E03CC0222351F1233078
:1029B00071F0243028F42130A1F0223011F514C038
:1029C0002630B1F02730C1F02430D9F404C0809112
:1029D00080008F7703C0809180008F7D809380007E
:1029E00010C084B58F7702C084B58F7D84BD09C0C7
:1029F0008091B0008F7703C08091B0008F7D80936D
:102A0000B000892F90E0880F991F84589F4FFC01D8
:102A1000A591B4918C9120E030E0842311F021E065
:102A200030E0C9010895629FD001739FF001829F39
:102A3000E00DF11D649FE00DF11D929FF00D839F4D
:102A4000F00D749FF00D659FF00D9927729FB00DEA
:102A5000E11DF91F639FB00DE11DF91FBD01CF01FD
:102A600011240895AA1BBB1B51E107C0AA1FBB1F5D
:102A7000A617B70710F0A61BB70B881F991F5A950A
:102A8000A9F780959095BC01CD01089597FB092E7B
:102A900007260AD077FD04D0E5DF06D000201AF41F
:102AA000709561957F4F0895F6F7909581959F4FAA
:102AB0000895A1E21A2EAA1BBB1BFD010DC0AA1F7F
:102AC000BB1FEE1FFF1FA217B307E407F50720F097
:102AD000A21BB30BE40BF50B661F771F881F991F12
:102AE0001A9469F760957095809590959B01AC015B
:102AF000BD01CF0108952F923F924F925F926F9246
:102B00007F928F929F92AF92BF92CF92DF92EF927D
:102B1000FF920F931F93CF93DF93CDB7DEB7CA1BFE
:102B2000DB0B0FB6F894DEBF0FBECDBF09942A8829
:102B3000398848885F846E847D848C849B84AA84D1
:102B4000B984C884DF80EE80FD800C811B81AA815E
:102B5000B981CE0FD11D0FB6F894DEBF0FBECDBF29
:102B6000ED010895EE0FFF1F0590F491E02D0994FB
:042B7000F894FFCF07
:102B7400253032752F253032752F253464202530C9
:102B840032643A253032643A2530326409005661A1
:102B94006C76653A094F70656E65640A0056616C1F
:102BA40076653A09436C6F7365640A004C6F673A43
:102BB40009436C65617265640A0053797374656DC9
:102BC4002052657365740A004C65616B3A094E6F57
:102BD400206C65616B732064657465637465642E31
:102BE4000A004C65616B3A09506F737369626C65D6
:102BF400206C65616B2064657465637465643A2058
:102C04004D6F7265207468616E20313030302067FA
:102C1400616C6C6F6E73207573656420696E2061DE
:102C240020323420686F757220706572696F642E6B
:102C34000A004C65616B3A09506F737369626C6585
:102C4400206C65616B2064657465637465643A2007
:102C5400466C6F772072617465203E3D3120474D8C
:102C64005020666F722031323020636F6E7365635B
:102C74007574697665206D696E757465732E0A00C6
:102C840047616C6C6F6E204C6F673A0A00456D703B
:102C940074790A00257509256C750A00456E64204F
:102CA4004C6F670A0056616C76653A094F70656E21
:102CB4000A004C65616B3A09436C65617265640A8C
:102CC40000FFFFFFFF00000000B70DBD1200000071
:0E2CD400002512BD12BB11EC11CC111512001F
:00000001FF
