:100000006CC0000092C0000090C000008EC00000D4
:100010008CC000008AC000009DC5000086C00000A2
:1000200084C0000082C0000080C000007EC00000CC
:100030007CC000007AC0000078C0000076C00000DC
:100040000C944E1D72C000000C94B31A0C94001B4B
:100050006CC000006AC0000068C0000066C00000FC
:1000600064C0000062C000007C3C3E5E2B3D3F2F20
:100070005B5D3B2C2A225C0000000000240027006E
:100080002A0000000000250028002B0000000000CE
:1000900023002600290004040404040404040202CA
:1000A00002020202030303030303010204081020F7
:1000B0004080010204081020010204081020000002
:1000C0000007000201000003040600000000000019
:1000D00000007003C216721C6B0311241FBECFEF09
:1000E000D8E0DEBFCDBF12E0A0E0B1E0E0E5FFE385
:1000F00002C005900D92AA35B107D9F716E0AAE51E
:10010000B2E001C01D92A138B107E1F710E0C8EDDF
:10011000D0E004C02297FE010E94981FC23DD10783
:10012000C9F70E94411D0C949C1F6ACFFB01DC01A2
:1001300004C08D910190801921F441505040C8F7BE
:10014000881B990B0895FC018191861721F0882363
:10015000D9F7992708953197CF010895FB01DC0164
:1001600001900D920020E1F70895FB01DC01415060
:10017000504048F001900D920020C9F701C01D9237
:1001800041505040E0F70895AEE0B0E0EAECF0E016
:100190000C946D1F0D891E8986E08C831A83098358
:1001A0008FEF9FE79E838D839E01275E3F4FCE0199
:1001B00001966F89788DA9010AD02F813885020FA9
:1001C000131FF80110822E96E4E00C94891FABE017
:1001D000B0E0EDEEF0E00C945F1F3C012B015A0102
:1001E000FC0117821682838181FD03C06FEF7FEFD0
:1001F000B9C19AE0892E1E010894211C311CF3011B
:100200002381F20123FD859123FF81912F01882312
:1002100009F4A5C1853239F423FD859123FF81912D
:100220002F01853221F490E0B301B7D1E8CF982FA8
:10023000FF24EE249924FFE1FF15D0F09B3269F0F2
:100240009C3228F4903259F0933291F40EC09D32D2
:1002500049F0903369F441E024C052E0F52A84E08B
:10026000F82A28C098E0F92A25C0E0E1FE2A22C039
:10027000F7FC29C0892F80538A3070F4F6FE05C040
:10028000989C902C1124980E15C0E89CE02C112409
:10029000E80EF0E2FF2A0EC09E3229F4F6FC5FC1A0
:1002A00040E4F42A07C09C3619F450E8F52A02C04D
:1002B000983649F4F20123FD959123FF91912F0186
:1002C000992309F0B8CF892F8554833018F08052D4
:1002D000833038F444E050E0A40EB51E5FE3598348
:1002E0000FC0933631F0933779F0933509F052C04F
:1002F0001FC0F5018081898342E050E0A40EB51E45
:10030000610101E010E011C0F501C080D180F6FC70
:1003100003C06FEF7FEF02C0692D70E042E050E054
:10032000A40EB51EC6012ED18C015FE7F52213C0C5
:10033000F501C080D180F6FC03C06FEF7FEF02C0F3
:10034000692D70E042E050E0A40EB51EC6010FD149
:100350008C0150E8F52AF3FE06C018C080E290E058
:10036000B3011BD1EA948E2D90E008171907B0F362
:100370000DC0F601F7FC8591F7FE81916F0190E0C9
:10038000B3010BD1E110EA940150104001151105A1
:1003900081F7E2C0943611F0993661F5F7FE08C096
:1003A000F501208131814281538184E090E00AC0CF
:1003B000F501808191819C01442737FD4095542FA0
:1003C00082E090E0A80EB91E9FE6F92257FF09C00F
:1003D00050954095309521953F4F4F4F5F4FE0E846
:1003E000FE2ACA01B901A1012AE030E002D1D82ECB
:1003F000D2183FC0953729F41F2D1F7E2AE030E028
:100400001DC01F2D197F9F3661F0903720F498355D
:1004100009F0A5C00FC0903739F0983709F09FC098
:1004200004C028E030E00AC0106114FD146020E12F
:1004300030E004C014FD166020E132E017FF08C070
:10044000F501608171818281938144E050E008C0B0
:10045000F50180819181BC0180E090E042E050E0B4
:10046000A40EB51EA101C5D0D82ED2188FE7F82E44
:10047000F122F6FE0BC05EEFF522D91438F4F4FE3B
:1004800007C0F2FC05C08FEEF82202C01D2D01C08E
:10049000192DF4FE0DC0FE01ED0DF11D808180339C
:1004A00019F499EEF92208C01F5FF2FE05C003C0DF
:1004B0008F2D867809F01F5F0F2DF3FC13C0F0FE1F
:1004C0000EC01E1510F09D2C0AC09D2C9E0C911A7A
:1004D0001E2D05C080E290E0B3015FD01F5F1E15A6
:1004E000C8F304C01E1510F4E11A01C0EE2404FF85
:1004F0000EC080E390E0B30150D002FF1BC001FDAD
:1005000003C088E790E00EC088E590E00BC0802F24
:10051000867881F001FF02C08BE201C080E2F7FC27
:100520008DE290E0B30139D005C080E390E0B301E3
:1005300034D09A94D914C8F3DA94F101ED0DF11D79
:10054000808190E0B30129D0DD20B1F705C080E2C1
:1005500090E0B30122D0EA94EE20C9F750CEF30127
:1005600066817781CB012B96E2E10C947B1FFC0125
:100570000590615070400110D8F7809590958E0FCE
:100580009F1F0895FC016150704001900110D8F741
:10059000809590958E0F9F1F08950F931F93CF9373
:1005A000DF938C01EB018B8181FF1BC082FF0DC0AB
:1005B0002E813F818C819D812817390764F4E88161
:1005C000F9810193F983E88306C0E885F985802FD6
:1005D0000995892B31F48E819F8101969F838E83AB
:1005E00002C00FEF1FEFC801DF91CF911F910F9154
:1005F0000895FA01AA27283051F1203181F1E894B9
:100600006F936E7F6E5F7F4F8F4F9F4FAF4FB1E005
:100610003ED0B4E03CD0670F781F891F9A1FA11D00
:10062000680F791F8A1F911DA11D6A0F711D811D01
:10063000911DA11D20D009F468943F912AE0269FC6
:1006400011243019305D3193DEF6CF010895462F25
:100650004770405D4193B3E00FD0C9F7F6CF462F06
:100660004F70405D4A3318F0495D31FD405241936F
:1006700002D0A9F7EACFB4E0A6959795879577952C
:100680006795BA95C9F700976105710508959B01B3
:10069000AC010A2E06945795479537952795BA953C
:1006A000C9F7620F731F841F951FA01D0895813025
:1006B000910539F46F5F7F4F69F48AE592E00C94FD
:1006C0009815892B39F46F5F7F4F21F48AE592E00A
:1006D0000C94AB15089580E090E06FEF7FEFE7CFCB
:1006E00081E090E06FEF7FEFE2CF0F931F93DF93F6
:1006F000CF93CDB7DEB72B970FB6F894DEBF0FBE02
:10070000CDBF80917602882341F08AE592E00E9475
:10071000FA15109276028AE0BED28AE0BE016F5FBF
:100720007F4F2CD28DB79EB740970FB6F8949EBFDF
:100730000FBE8DBFEDB7FEB7319607E712E0ADB73C
:10074000BEB712961C930E93119780E091E09383AD
:1007500082838D81848315828C81868317828E812A
:100760009F81918780878B81828713868A81848786
:10077000158689818687178607DD8DB79EB74096D7
:100780000FB6F8949EBF0FBE8DBF82E596E0B8010C
:100790000E94301D2B960FB6F894DEBF0FBECDBF62
:1007A000CF91DF911F910F9108950F931F9387E0D1
:1007B00061E00E94771E88E061E00E94771E89E078
:1007C00060E00E94771E68E873E180E090E00E949C
:1007D000A41D80E895E060E070E041E00E948C1587
:1007E00087E060E00E94771E88E060E00E94771E4C
:1007F0007CDF07E712E0C8016EE171E0AFDC82E563
:1008000096E0B8010E942E1D1F910F9108950F933D
:100810001F9387E061E00E94771E88E060E00E94FD
:10082000771E89E061E00E94771E68E873E180E04E
:1008300090E00E94A41D80E895E060E070E040E058
:100840000E948C1587E060E00E94771E89E060E0DE
:100850000E94771E4ADF07E712E0C8016DE271E0EF
:100860007DDC82E596E0B8010E942E1D1F910F915C
:1008700008953BDF80E895E061E070E00E94851517
:10088000813051F0813018F0823081F40AC087E75E
:1008900092E06CE371E009C087E792E066E571E001
:1008A00004C087E792E066EA71E058DC82E596E0F2
:1008B00067E772E00C942E1DDF93CF93CDB7DEB7C0
:1008C0006B970FB6F894DEBF0FBECDBF8091760256
:1008D000882309F04AC0D4D181E08093760281E870
:1008E00095E064E00E942319882309F43EC0CE01FC
:1008F000019661E875E044EF51E023E10E940118A0
:100900008B819C8190935D0280935C028D819E819E
:10091000AF81B88580935E0290935F02A0936002DE
:10092000B093610289859A85AB85BC85809362020C
:1009300090936302A0936402B0936502A6E6B2E0CE
:10094000FE013D968DE001900D928150E1F78A8D78
:100950009B8D9093740280937302CE0101960E9446
:10096000AB158AE592E00E94ED156B960FB6F894F0
:10097000DEBF0FBECDBFCF91DF9108950F931F93C0
:1009800014DF9ADF00E815E0C80161E070E040E0A4
:100990000E948C15C80163E070E040E00E948C1555
:1009A000C80164E070E040E00E948C15C80165E079
:1009B00070E040E00E948C1598DE07E712E0C80165
:1009C0006CEF71E0CBDB82E596E0B8010E942E1D52
:1009D0001F910F91089586E00E94CB1E892B09F08C
:1009E000CDDF82E00E94CB1E892BE1F483E00E94E0
:1009F000CB1E892B09F461C080E895E061E070E0CE
:100A00000E948515882309F058C040E04093750284
:100A1000442309F452C080E895E061E070E00E9450
:100A20008C15F5DE26DF48DF48C082E596E00E949F
:100A3000F71B8F36A9F0803740F48B3659F18C368E
:100A400089F0833609F039C009C0823729F086372A
:100A500059F0813791F5E7CF91DF2FC0D8DE2DC057
:100A6000A4DE2BC006DF29C040DE80E895E060E010
:100A700070E00E948515882319F08130C1F405C00B
:100A800087E792E06DE271E011C087E792E06AE0EB
:100A900072E00CC080E895E061E070E040E00E9408
:100AA0008C1523DE87E792E067E172E057DB82E591
:100AB00096E067E772E00E942E1D82E596E00E94B4
:100AC000C61B892B09F0B1CF82E596E00C94201C5F
:100AD00087E061E00E94381E88E061E00E94381ED5
:100AE00089E061E00E94381E84E061E00E94381EC7
:100AF0008AE061E00E94381E87E060E00E94771E75
:100B000088E060E00E94771E89E060E00E94771E26
:100B100084E061E00E94771E8AE061E00E94771E17
:100B200086E062E00E94381E8AE0B5D0109276021C
:100B300082E596E040E855E260E070E026E00E9441
:100B40003B1B82E596E00E94701C8823D1F3109233
:100B5000750208951F920F920FB60F9211248F9372
:100B600088E10FB6F89480936000109260000FBE89
:100B70008F910F900FBE0F901F9018959F92AF927C
:100B8000BF92CF92DF92EF92FF920F931F93DF936A
:100B9000CF93CDB7DEB727970FB6F894DEBF0FBE61
:100BA000CDBFA82E8B016E010894C11CD11CBB24A3
:100BB000EE242AE0922E8A2D60E00E94771EEEBC81
:100BC0000DB407FEFDCF8EB51EBC0DB407FEFDCFE4
:100BD000FEB48A2D61E00E94771E2F2D2F7085E0D4
:100BE000E81671F48F2D8F7182958F70899DC001E9
:100BF0001124280F2E83BF2CBB1CBB24BB1C09C097
:100C0000F2949FE0F922F99CC0011124280FF6010B
:100C10002083E3940894C11CD11CF7E0EF1659F629
:100C20008F8191E0B91629F4282F30E02053384FF6
:100C300004C0282F30E02459384F8981F80180837F
:100C40008A8181838B8182838D8183838E8184835A
:100C5000368325838C8187838F81828727960FB681
:100C6000F894DEBF0FBECDBFCF91DF911F910F91E2
:100C7000FF90EF90DF90CF90BF90AF909F9008953E
:100C800080E00E9466190E9459196AE070E080E0D5
:100C900090E00C94A41D61E00E94381E0E946B1924
:100CA00081E00E945D1984E00E9466196AE070E0AC
:100CB00080E090E00C94A41DFC01673020F086E1F8
:100CC000858380E00895262F30E060FD02C0663005
:100CD00019F48DB58E7F02C08DB581608DBD8CB548
:100CE0008C7F8CBD4CB522FD02C090E001C092E02B
:100CF00036952795822F8170842B892B8CBD81E0BE
:100D00000895FF920F931F93CF93DF938B010E945F
:100D1000961DEB01FF24FA94FEBC0DB407FEFDCF37
:100D20008EB58F3F11F481E008C00E94961D6C1BA8
:100D30007D0B6017710780F380E0DF91CF911F91E9
:100D40000F91FF900895FC01848160E00C94771E60
:100D5000FC01848161E00C94771EDC016EBDFA0118
:100D600020E030E00DB407FEFDCF80818EBD0DB4D4
:100D700007FEFDCF81818EBD2E5F3F4F329682E010
:100D80002030380779F70DB407FEFDCF8FEF8EBD09
:100D90000DB407FEFDCF8FEF8EBD0DB407FEFDCF66
:100DA0008FEF8EBD0DB407FEFDCF8EB51A968C93D6
:100DB0001A978F71853011F481E0089581E11596BD
:100DC0008C931597CD01C4DF80E00895FF920F93B7
:100DD0001F93CF93DF93EC010E94961D8B01FF249C
:100DE000FA9409C00E94961D601B710B6D527140F0
:100DF00010F08FE00DC0FEBC0DB407FEFDCF8EB528
:100E00008A878F3F79F38E3F11F481E005C08DE032
:100E10008D83CE019DDF80E0DF91CF911F910F91F7
:100E2000FF900895CF93DF93EC018E818823C9F062
:100E30008FEF8EBD2F8138854FEF04C00DB407FEB4
:100E4000FDCF4EBD2F5F3F4FC901019781509240AA
:100E5000A8F338872F830DB407FEFDCFCE0178DFCE
:100E60001E82DF91CF910895DF92EF92FF920F9350
:100E70001F93CF93DF93EC01D62E79018A01D2DF45
:100E8000CE0161DFCE016CE271E03BDF8D2D80642D
:100E90008EBD0DB407FEFDCF28E130E0D801C701BB
:100EA000022E04C0B695A795979587950A94D2F718
:100EB0008EBD0DB407FEFDCF285030408FEF283F88
:100EC000380761F7DD2011F485E906C088E0D816FF
:100ED00011F487E801C08FEF8EBD0DB407FEFDCF82
:100EE00090E02FEF2EBD0DB407FEFDCF8EB587FF2E
:100EF00002C09150B9F78A87DF91CF911F910F916E
:100F0000FF90EF90DF900895CF92DF92EF92FF92E3
:100F10000F931F93CF93DF93EC017A018B0169014B
:100F2000411551056105710511F482E133C08B85CE
:100F3000833039F029E0EE0CFF1C001F111F2A95A9
:100F4000D1F7CE0168E1A80197018EDF882311F067
:100F500084E020C0CE016EEFA601FFDE8823D9F029
:100F6000CE0168E572E0CDDE882311F485E112C080
:100F7000CE016DE020E030E040E050E075DF8823F6
:100F800041F48FEF8EBD0DB407FEFDCF8EB58823E3
:100F900071F084E18D83CE01DBDE80E0DF91CF91C3
:100FA0001F910F91FF90EF90DF90CF900895CE01A9
:100FB000CFDE81E0F3CF8F929F92AF92BF92CF921C
:100FC000DF92EF92FF920F931F93CF93DF93EC0189
:100FD0005A016B0149010115110509F477C0C801D7
:100FE000820F931F8150924008F06CC08E8188233D
:100FF00071F088819981AA81BB81481759076A07D6
:101000007B0729F48F8198858816990608F5A882B0
:10101000B982CA82DB828B85833039F069E0AA0C01
:10102000BB1CCC1CDD1C6A95D1F7CE0161E1A60189
:1010300095011ADF882319F083E08D8343C0CE0128
:10104000C5DE882309F43EC018861F8281E08E83A6
:101050008FEF8EBD8F8198852FEF05C00DB407FEF1
:10106000FDCF2EBD019688159905C0F398878F8313
:10107000D801119720E030E09FEF0BC00DB407FEC0
:10108000FDCF8EB5F701E20FF31F80839EBD2F5F6A
:101090003F4F2A173B0790F30DB407FEFDCF8EB5E7
:1010A000AE0DBF1D8C932F813885200F311F3887DF
:1010B0002F838985882319F02050324038F0CE01E3
:1010C000B1DE04C0CE0144DE80E001C081E0DF91EA
:1010D000CF911F910F91FF90EF90DF90CF90BF9035
:1010E000AF909F908F900895EF92FF920F931F9370
:1010F000790120E030E000E012E05DDF1F910F9108
:10110000FF90EF900895BF92CF92DF92EF92FF92FF
:101110000F931F93CF93DF93EC01B62E1B86198696
:101120001E821D824C830E94961D6B018C8161E0A2
:101130000E94381ECE010CDE8CE060E00E94381E5A
:101140008BE061E00E94381E8DE061E00E94381E55
:101150008AE061E00E94381E8AE061E00E94771E0A
:1011600083E58CBD8DB58E7F8DBD80E09FEF9EBDEC
:101170000DB407FEFDCF8F5F8A30C9F7CE01E3DDE6
:1011800009C00E94961D6C197D09615D774010F0C1
:1011900081E059C0CE0160E020E030E040E050E066
:1011A00063DE182F8A87813061F7CE0168E02AEA72
:1011B00031E040E050E058DE82FF02C01B8711C0E2
:1011C00080E02FEF2EBD0DB407FEFDCF9EB58F5FE3
:1011D0008430C1F79A879A3A11F082E034C082E0F5
:1011E0008B878B85823021F0EE24FF2487010FC08E
:1011F000E12CF12C012DF0E41F2F09C00E94961D57
:101200006C197D09615D774010F088E01CC0CE014B
:1012100067E320E030E040E050E026DECE0169E206
:10122000A801970121DE8A87882341F78B858230C8
:1012300021F5CE016AE320E030E040E050E014DE2A
:10124000882331F086E08D83CE0182DD80E01AC0F4
:101250008FEF8EBD0DB407FEFDCF8EB5807C803C38
:1012600011F483E08B8780E09FEF9EBD0DB407FEF5
:10127000FDCF2EB58F5F8330C1F7CE0169DDCE0182
:101280006B2D1ADDDF91CF911F910F91FF90EF90A1
:10129000DF90CF90BF900895CF93DF93EC01DB01F7
:1012A00080E090E020E2FD01E80FF91F2083019625
:1012B0008B309105C1F757E040E021C02E3219F084
:1012C00088E690E007C05A3019F15AE048E017C0AC
:1012D0003217F1F0FC01019634913323C9F754170A
:1012E000B8F02132A8F02F3798F4822F81568A3136
:1012F00008F42052FD01E40FF11D20834F5F299176
:101300002223E1F690E08C91803219F091E001C047
:1013100090E0892FDF91CF9108956F927F928F9205
:101320009F92AF92BF92CF92DF92EF92FF920F9374
:101330001F93CF93DF93EC017A018B012D81222340
:1013400009F480C08B899C89AD89BE898417950773
:10135000A607B70708F476C085C0E114F1040105BB
:10136000110549F41E821F82188619861A861B866B
:101370001C861D8665C02A853B854C855D85EB8D69
:10138000FC8D858590E009962150304040405040CA
:1013900039014A01082E04C0969487947794679483
:1013A0000A94D2F72F5F3F4F4F4F5F4F0894E108E9
:1013B000F108010911095701680104C0D694C794C6
:1013C000B794A7948A95D2F70894E11CF11C011DEB
:1013D000111DA614B704C804D90428F0211531053D
:1013E0004105510549F48F89988DA98DBA8D8E8359
:1013F0009F83A887B98716C0A618B708C808D90858
:1014000011C04E815F81688579858B8D9C8D94019B
:101410000E9443130894A108B108C108D108882389
:1014200031F410C086E0882E912C8C0E9D1EA114E4
:10143000B104C104D10429F7EA86FB860C871D8715
:1014400081E001C080E0DF91CF911F910F91FF906B
:10145000EF90DF90CF90BF90AF909F908F907F9054
:101460006F900895223009F078CFE6CFCF93DF93C5
:10147000EC01462F6E857F8588899989ECD6882373
:1014800019F420E030E00AC08A89282F30E095E086
:10149000220F331F9A95E1F727583C4FC901DF917E
:1014A000CF9108950F931F93CF93DF938C01FC018D
:1014B00085818823C9F1848187FF34C0C80161E038
:1014C000D5DFEC01009781F1F8018581823040F48D
:1014D00083899489A589B6898C8F9D8FAE8FBF8FA4
:1014E000F8018789908D9B8F8A8F8789908DA18D38
:1014F000B28DCD01AA27BB279D8B8C8BE091770302
:10150000F0917803309751F0BE016A5E7F4FCE01B3
:1015100048960995888D998D9B8B8A8BF8018481DB
:101520008F7784833AD601C080E0DF91CF911F91FD
:101530000F910895CF93DF93EC01B4DF882311F06E
:101540001D8281E0DF91CF9108956F927F928F92FB
:101550009F92AF92BF92CF92DF92EF92FF920F9342
:101560001F93DF93CF9300D000D0CDB7DEB77C01BF
:101570005A016B01DC0115968C911597813009F0A9
:101580008BC014968C9181FF87C09AC00097A105EB
:10159000B10511F481E081C0F70162847384848411
:1015A0009584C701B601A501B8DE882309F474C08B
:1015B000D7015B968D919C915C97A114B104C104F5
:1015C000D10489F457964D915D916D917C915A9714
:1015D0000E94B513882309F45FC0F701178A108EA3
:1015E000118E128E3CC0D70116964D915D916D9172
:1015F0007C9119979E012F5F3F4F0E9443138823D0
:1016000009F44AC0D7015B96ED91FC915C97498142
:101610005A816B817C818789803129F088EF9FEF27
:10162000AFEFBFE004C088EF9FEFA0E0B0E0481745
:1016300059076A077B0798F4CF010E94B5138823E6
:1016400059F1F7014681578160857185838D948DAD
:101650000FEF1FEF2FEF3FE07BD78823E9F0D70193
:101660005396AD92BD92CD92DC92569714968C9182
:101670001497806814968C93C70114DF882361F057
:10168000B601A5016A147B048C049D0410F4B40116
:10169000A301C70142DE01C080E00F900F900F90C0
:1016A0000F90CF91DF911F910F91FF90EF90DF90FE
:1016B000CF90BF90AF909F908F907F906F90089544
:1016C000F70183899489A589B68984179507A607A8
:1016D000B70708F05BCFE0CF2F923F924F925F9217
:1016E0006F927F928F929F92AF92BF92CF92DF9232
:1016F000EF92FF920F931F93CF93DF93EC012A0198
:101700008D81882309F4C4C08C8180FFC1C0D6C0FC
:1017100025014E185F084B0176E0272E312C2C0E48
:101720003D1E3201AFC02A853B854C855D856FEF3C
:10173000A62E61E0B62EA222B3228D8179018A0104
:1017400099E016950795F794E7949A95D1F7EB8D64
:10175000FC8D823049F4428D538D648D758D4E0D14
:101760005F1D601F711F3EC0D480DA94DE20A1147B
:10177000B104D1F4DD20C1F4211531054105510535
:1017800049F48F89988DA98DBA8D8E839F83A88700
:10179000B9870AC04E815F8168857985CF01910143
:1017A00072D7882309F474C0EB8DFC8D4E815F8164
:1017B000688579854250504060407040058404C07F
:1017C000440F551F661F771F0A94D2F786859785A9
:1017D000A089B189480F591F6A1F7B1F4D0D511DEC
:1017E000611D711D80E092E08A199B0963018615D5
:1017F000970508F46C018C8186FD06C080E0C81650
:1018000082E0D80609F072C08091280290912902E6
:10181000A0912A02B0912B02481759076A077B074B
:1018200009F464C08091790590917A05950186014B
:101830007401C1DB882361F18C0C9D1C12C09501E1
:1018400027583C4FA9014C0D5D1DD401F90102C080
:1018500081918D93E417F507D9F7E21BF30B8E0EF8
:101860009F1E960140E050E08A859B85AC85BD8532
:10187000820F931FA41FB51F8A879B87AC87BD87E4
:101880006C187D086114710409F04DCFA20102C0EB
:101890004FEF5FEFCA01DF91CF911F910F91FF9042
:1018A000EF90DF90CF90BF90AF909F908F907F9000
:1018B0006F905F904F903F902F900895AB88BC88B9
:1018C000CD88DE88EA84FB840C851D859A0140E082
:1018D00050E0D601C5018E199F09A00BB10B8217EC
:1018E0009307A407B50708F413CF15CFCB01BA01AE
:1018F00040E0B1D4882309F0A2CFCACFCF92DF92C3
:10190000EF92FF920F931F93DF93CF930F92CDB778
:10191000DEB76C01FC018581823068F0E284F384DB
:1019200004851585C601BE016F5F7F4F41E050E021
:10193000D3DE019769F020E030E0C9010F90CF912C
:10194000DF911F910F91FF90EF90DF90CF9008955E
:10195000F60182859385A485B5854F96A11DB11D9D
:1019600082879387A487B587F5E016950795F79446
:10197000E794FA95D1F78E2D8F70282F30E0E5E0AF
:10198000220F331FEA95E1F727583C4FD6CF0F932C
:101990001F93CF93DF93EC018B018D81882309F096
:1019A00040C0FB0187898031B1F482E08D831F8ABA
:1019B000188E198E1A8E808D918DA0E0B0E045E0D2
:1019C000880F991FAA1FBB1F4A95D1F78B8B9C8B41
:1019D000AD8BBE8B14C0803221F583E08D83FB017B
:1019E000428D538D648D758D4F8B588F698F7A8F93
:1019F0009E012D5E3F4FC8010FD7882391F01C8FA9
:101A00000B8F81E08C831E821F82188619861A86AE
:101A10001B861C861D861E861F86188A198A1A8AAE
:101A200001C080E0DF91CF911F910F9108951F9326
:101A3000CF93DF93EC01142FE62FF0E075E0EE0F6B
:101A4000FF1F7A95E1F7E758FC4F8385817121F0FC
:101A5000842F827409F052C06A8B80912802909181
:101A60002902A0912A02B0912B028E879F87A88B12
:101A7000B98B84899589A0E0B0E0BC015527442743
:101A8000828D938DA0E0B0E0482B592B6A2B7B2BE5
:101A90004F8B588F698F7A8F838590E08871907013
:101AA000009751F4848D958DA68DB78D8B8B9C8B73
:101AB000AD8BBE8B81E00BC0409701F59E012D5E82
:101AC0003F4F8B8D9C8DA8D68823C1F084E08D83F9
:101AD000812F8F708C831E821F82188619861A862A
:101AE0001B861C861D8616FD02C081E008C0CE0143
:101AF00040E050E060E070E028DD01C080E0DF9170
:101B0000CF911F910895CF93DF93EC019C012A5F41
:101B10003F4F8B8D9C8D41E050E060E070E0EAD655
:101B20008823A1F08F89988DA98DBA8D0097A10582
:101B3000B10559F48E819F81A885B9858F8B988FC7
:101B4000A98FBA8F8C8180688C8381E0DF91CF91DF
:101B500008952F923F924F925F927F928F929F9221
:101B6000AF92BF92CF92DF92EF92FF920F931F93AB
:101B7000DF93CF9300D000D000D0CDB7DEB76C019B
:101B8000162F072F5E834D83DC0115968C911597D8
:101B9000813009F069C114968C9181FF65C187C1BC
:101BA000F601438954896589768982859385A48560
:101BB000B58584179507A607B70729F0C601ADDBE1
:101BC000882309F451C1812F902F9C0129012D8078
:101BD0003E8012C1D6015B96ED91FC915C97DA01D3
:101BE000C90119E0B695A795979587951A95D1F7EC
:101BF00074807A9478227FEF872E71E0972E82226C
:101C00009322772009F04CC08114910409F048C058
:101C1000D60116964D915D916D917C911997411564
:101C200051056105710581F457968D919D910D9037
:101C3000BC91A02D0097A105B10541F1F601868365
:101C40009783A087B1872CC0CF019E012F5F3F4FA4
:101C50001AD5882309F40FC129813A814B815C810F
:101C6000D6015B96ED91FC915C978789803129F0D4
:101C700088EF9FEFAFEFBFE004C088EF9FEFA0E0D9
:101C8000B0E0281739074A075B0728F0C6013BDF99
:101C9000882331F4E9C0F6012683378340875187D2
:101CA00080E092E08819990951018215930508F4A2
:101CB0005C01D6015B96ED91FC915C971696ED90D8
:101CC000FD900D911C9119978EEF9FEFAFEFBFEF35
:101CD000E80EF91E0A1F1B1F058404C0EE0CFF1C32
:101CE000001F111F0A94D2F786859785A089B189B4
:101CF000E80EF91E0A1F1B1FE70CF11C011D111D28
:101D000090E0A91692E0B90649F5809128029091D9
:101D10002902A0912A02B0912B028E159F05A007DF
:101D2000B10761F48FEF9FEFAFEFBFEF8093280211
:101D300090932902A0932A02B0932B0280917905F7
:101D400090917A05B801A7019201DED8882309F4A1
:101D50008BC0A0E0B2E04A0E5B1E3CC0811491042F
:101D600001F5F6012285338544855585838994895B
:101D7000A589B689281739074A075B0790F00DD265
:101D8000882309F471C0E0922802F092290200939E
:101D90002A0210932B0280917B05816080937B0542
:101DA00007C0C801B70141E056D2882309F45CC0DE
:101DB000940127583C4FA9014A0D5B1DD201F9013E
:101DC00002C08D918193E417F507D9F7E21BF30B5D
:101DD0004E0E5F1E2A183B08950140E050E0F601C8
:101DE00082859385A485B585820F931FA41FB51F97
:101DF00082879387A487B587D6011A962D913D9146
:101E00004D915C911D972114310409F0E3CE539656
:101E10008D919D910D90BC91A02D82179307A407E1
:101E2000B50748F4F601238B348B458B568B8481A0
:101E30008068848311C08091770390917803892B07
:101E400059F08D819E81892B39F0D60114968C91A1
:101E50001497806814968C93F601848183FF0DC0DB
:101E6000C60120DB882349F481E090E0D601139677
:101E70009C938E9312971E821D828D819E81269641
:101E80000FB6F894DEBF0FBECDBFCF91DF911F918B
:101E90000F91FF90EF90DF90CF90BF90AF909F9009
:101EA0008F907F905F904F903F902F90089582FD8C
:101EB00077CE89CEDF93CF930F92CDB7DEB769830C
:101EC000BE016F5F7F4F41E050E043DE0F90CF9146
:101ED000DF910895DF92EF92FF920F931F93CF93BC
:101EE000DF93EC0110DE882309F44DC0EB8DFC8DEF
:101EF000EE80FF80088519858EEF9FEFAFEFBFEF73
:101F0000E80EF91E0A1F1B1F058404C0EE0CFF1CFF
:101F1000001F111F0A94D2F786859785A089B18981
:101F2000E80EF91E0A1F1B1FD4800894E108F1086F
:101F3000010911090AC0C801B7016D0D711D811D8C
:101F4000911D66D18823F9F0DA94DD20A1F7EB8D9D
:101F5000FC8D20E032E040E050E0058404C0220F18
:101F6000331F441F551F0A94D2F78B899C89AD8972
:101F7000BE89820F931FA41FB51F8B8B9C8BAD8BCB
:101F8000BE8B81E001C080E0DF91CF911F910F9166
:101F9000FF90EF90DF9008956F927F928F929F92C3
:101FA000AF92BF92CF92DF92EF92FF920F931F9367
:101FB000DF93CF93CDB7DEB72B970FB6F894DEBF84
:101FC0000FBECDBF5C016B01822EDC0115968C919A
:101FD000882309F0CCC0CA018E010F5F1F4FB801E2
:101FE0005BD9882309F4C3C0F601838D948DD50194
:101FF0005C969C938E935B9716821782108611864F
:10200000D6011A961D921D921D921C921D9799241D
:10201000380140C0C60172DCFC01009709F4A7C07A
:1020200085E016950795F794E7948A95D1F71E2DCC
:102030001F708081882311F0853ED1F4992091F49E
:10204000D50152961C935297209128023091290273
:1020500040912A0250912B021E962D933D934D9351
:102060005C9351978081882399F49924939421C09B
:10207000C301BF014BE050E00E949600009751F46D
:10208000882D8073803309F472C0C501612F6CC044
:1020900099249394F601E284F38404851585838959
:1020A0009489A589B689E816F9060A071B0708F47A
:1020B000B1CF882D8271823109F059C0992039F051
:1020C000C50161E0D3D98C01009781F450C0D601DD
:1020D00015968C91823009F44AC0C601FBDE882334
:1020E00009F445C0F501128A09E713E080E2D8013E
:1020F0001D928A95E9F7D801FE0131968BE0019097
:102100000D928150E1F7E0917703F09178033097D9
:1021100039F0B801625F7F4FC8014096099509C048
:1021200081E298E2F801918B808B80E098E09787BC
:102130008687D80150968D919C91519753969C9388
:102140008E93529759969C938E9358971E968D9185
:102150009C911F9757969C938E9356971ED08823D9
:1021600031F0C501F5016289482D61DC01C080E0D4
:102170002B960FB6F894DEBF0FBECDBFCF91DF9187
:102180001F910F91FF90EF90DF90CF90BF90AF9095
:102190009F908F907F906F90089580917B0588230A
:1021A00099F1409128025091290260912A02709180
:1021B0002B028091790590917A0529E733E00E94FE
:1021C0008407882319F140917C0550917D05609129
:1021D0007E0570917F05411551056105710591F0EE
:1021E0008091790590917A0529E733E00E94840770
:1021F000882361F010927C0510927D0510927E0577
:1022000010927F0510927B0581E0089580E008958B
:10221000EF92FF920F931F937B018C01BEDF882307
:10222000A9F0E9E7F3E0119285E0E937F807D9F77B
:10223000E0922802F092290200932A0210932B02C6
:1022400080917B05816080937B0581E01F910F91D8
:10225000FF90EF900895DF92EF92FF920F931F93FC
:102260007B018C01D42E8091280290912902A091AB
:102270002A02B0912B028E159F05A007B107B9F075
:102280008CDF8823D9F08091790590917A05B80187
:10229000A70129E733E00E947408882379F0E092CF
:1022A0002802F092290200932A0210932B028091B7
:1022B0007B058D2980937B0581E001C080E01F9123
:1022C0000F91FF90EF90DF9008958F929F92AF92C1
:1022D000BF92CF92DF92EF92FF920F931F93CF9313
:1022E000DF936C01142F70937A0560937905442372
:1022F00021F48824992454013FC0453008F01AC1C4
:1023000060E070E080E090E040E0A5DF882309F421
:1023100011C1C12FD0E02197FE0174E0EE0FFF1F25
:102320007A95E1F7E758FC4FE254FE4F8081EE5B6F
:10233000F14090E08F779070892B09F0FBC0E65355
:10234000FE4F80819181A281B38184369105A105E0
:10235000B10508F4EFC064E0CC0FDD1F6A95E1F72A
:10236000C15CDA4F88809980AA80BB808114910477
:10237000A104B10409F4DEC0C501B40140E06BDF83
:10238000882309F4D7C080918403909185038050FD
:10239000924009F0CFC020918903222309F4CAC0DA
:1023A0008091870390918803892B09F4C3C08091A1
:1023B0008603882309F4BEC0F601228B8091860330
:1023C0008483158661E070E007C04F5FF6014587A2
:1023D0004150483008F0AEC0F6014585848190E058
:1023E0009B01042E02C0220F331F0A94E2F78217CA
:1023F000930759F720918F033091900321153105F0
:1024000019F040E050E008C020919D0330919E03F8
:1024100040919F035091A003F601258336834783A3
:102420005087E0908703F090880300E010E0E80C0C
:10243000F91C0A1D1B1DE38AF48A058B168B8091FB
:102440008A0390918B03918F808F6091890370E054
:1024500080E090E00E941E1F6E0D7F1D801F911F67
:10246000F601628F738F848F958F20918A0330914C
:102470008B0355E0220F331F5A95E1F721503E4F51
:10248000232F3327269540E050E0260F371F481FA3
:10249000591F26873787408B518B80918C039091F1
:1024A0008D03009719F0A0E0B0E008C08091990377
:1024B00090919A03A0919B03B0919C0385017401B4
:1024C000E21AF30A040B150BA8019701280F391F14
:1024D0004A1F5B1FF601058404C056954795379542
:1024E00027950A94D2F72187328743875487253F5F
:1024F000FFE03F07F0E04F07F0E05F0710F48CE0EB
:1025000006C0255F3F4F4040504028F480E1F6016F
:10251000878B81E010C08091A5039091A603A091C4
:10252000A703B091A803F601828F938FA48FB58F74
:1025300080E2EECF80E0DF91CF911F910F91FF906D
:10254000EF90DF90CF90BF90AF909F908F900895C5
:102550004F925F926F927F928F929F92AF92BF92B3
:10256000CF92DF92EF92FF920F931F93CF93DF935F
:10257000EC016A017B0128013901423051056105F6
:10258000710508F46EC089859A85AB85BC85019676
:10259000A11DB11D84179507A607B70708F461C0F0
:1025A0002B893C894D895E898F89803129F499274F
:1025B0008F2D7E2D6D2D09C0C701B60117E09695B0
:1025C0008795779567951A95D1F74B015C01820E37
:1025D000931EA41EB51E8091280290912902A091FD
:1025E0002A02B0912B0288169906AA06BB0631F082
:1025F000C501B40140E02FDE882399F18F89803135
:1026000049F4F601F070EE0FFF1FE758FC4F5182BE
:1026100040820DC0F601EF77F070EE0FFF1FEE0F56
:10262000FF1FE758FC4F4082518262827382809183
:102630007B05816080937B058A89823080F08D8163
:102640009E81AF81B885880E991EAA1EBB1E8092FE
:102650007C0590927D05A0927E05B0927F0581E079
:1026600001C080E0DF91CF911F910F91FF90EF901B
:10267000DF90CF90BF90AF909F908F907F906F90A2
:102680005F904F900895CF92DF92EF92FF920F9359
:102690001F93CF93DF93EC017A018B016901898548
:1026A0009A85AB85BC850196A11DB11D8417950740
:1026B000A607B70708F44FC02B893C894D895E896E
:1026C0008F89803129F49927812F702F6F2D09C0B0
:1026D000C801B701E7E09695879577956795EA95E4
:1026E000D1F7260F371F481F591F8091280290915C
:1026F0002902A0912A02B0912B02281739074A0714
:102700005B0731F0CA01B90140E0A5DD882319F16A
:102710008F89803159F4F701F070EE0FFF1FE758F1
:10272000FC4F80819181A0E0B0E00EC0F701EF770F
:10273000F070EE0FFF1FEE0FFF1FE758FC4F808178
:102740009181A281B381BF70F60180839183A283BE
:10275000B38381E001C080E0DF91CF911F910F91A1
:10276000FF90EF90DF90CF900895AF92BF92CF92FD
:10277000DF92EF92FF920F931F93DF93CF9300D0DE
:1027800000D0CDB7DEB76C017A018B0182E090E01A
:10279000A0E0B0E0F60180839183A283B3835E0161
:1027A0000894A11CB11CC601B801A70195016BDFFB
:1027B000882311F1C601B801A70100E010E020E074
:1027C00030E0C6DE8823C1F0E980FA800B811C81ED
:1027D000F6018789803129F088EF9FEFAFEFBFE0E6
:1027E00004C088EF9FEFA0E0B0E0E816F9060A0702
:1027F0001B07C8F281E001C080E00F900F900F909E
:102800000F90CF91DF911F910F91FF90EF90DF908C
:10281000CF90BF90AF9008954F925F926F927F924A
:102820008F929F92AF92BF92CF92DF92EF92FF92E0
:102830000F931F93DF93CF9300D000D0CDB7DEB7B7
:102840006C0149835A836B837C833901EE24FF2416
:1028500087012E010894411C511C812CA2E09A2E64
:10286000A12CB12C49815A816B817C81C6019201D6
:102870000ADF882351F1D501C401F601058404C0A3
:10288000880F991FAA1FBB1F0A94D2F7E80EF91EE2
:102890000A1F1B1F29813A814B815C818789803106
:1028A00029F088EF9FEFAFEFBFE004C088EF9FEF04
:1028B000A0E0B0E0281739074A075B0798F2F30158
:1028C000E082F1820283138381E00F900F900F90DA
:1028D0000F90CF91DF911F910F91FF90EF90DF90BC
:1028E000CF90BF90AF909F908F907F906F905F90B0
:1028F0004F9008952F923F924F925F926F927F92E6
:102900008F929F92AF92BF92CF92DF92EF92FF92FF
:102910000F931F93DF93CF93CDB7DEB72F970FB6EB
:10292000F894DEBF0FBECDBF1C014A875B876C8762
:102930007D873F872E87D9010D911D912D913C9167
:10294000011511052105310549F048015901089487
:10295000811C911CA11CB11C198610C0FC01808037
:102960009180A280B38019868A859B85AC85BD85C0
:102970000197A105B10511F491E09987D10119964C
:102980008D919D910D90BC91A02D0196A11DB11D21
:102990008D839E83AF83B8877501640144245524D9
:1029A00032018E010F5F1F4FF10181859285A38552
:1029B000B485481659066A067B0608F08CC08D81DE
:1029C0009E81AF81B8858C159D05AE05BF0550F47D
:1029D00082E0882E912CA12CB12CB2E0CB2ED12CF0
:1029E000E12CF12CC101B701A60198014CDE88232E
:1029F00009F471C089819A81AB81BC81A7019601DC
:102A00002F5F3F4F4F4F5F4F0097A105B10519F062
:102A100049015A010DC0281939094A095B098A85FB
:102A20009B85AC85BD85281739074A075B0759F098
:102A30000894411C511C611C711C0894C11CD11CC0
:102A4000E11CF11CB1CFC101A601B7010FEF1FEFCF
:102A50002FEF3FE07DDD882391F43DC02601370153
:102A600008944108510861087108C101B301A2012D
:102A7000970186016DDD882371F1730162018C1469
:102A80009D04AE04BF0450F3AE85BF854D915D91AA
:102A90006D917C91411551056105710531F0C101C0
:102AA0009501840155DD8823B1F0EE85FF85808294
:102AB0009182A282B382F985FF2359F00894811C88
:102AC000911CA11CB11CD1018D929D92AD92BC9222
:102AD000139781E001C080E02F960FB6F894DEBF17
:102AE0000FBECDBFCF91DF911F910F91FF90EF905F
:102AF000DF90CF90BF90AF909F908F907F906F901E
:102B00005F904F903F902F900895F999FECF72BD3E
:102B100061BDF89A80B50895F999FECF1FBA72BDCC
:102B200061BD40BD0FB6F894FA9AF99A0FBE0895A8
:102B3000FC011382128288EE93E0A0E0B0E084836F
:102B40009583A683B7838EE392E091838083128E70
:102B5000118E14860895FC018EE392E091838083A8
:102B60000895DF93CF930F92CDB7DEB7FC01698351
:102B7000A081B18112962D913C911397BE016F5F98
:102B80007F4F41E050E0F90109950F90CF91DF911F
:102B90000895DC015996ED91FC915A97309719F4FC
:102BA00020E030E018C02389348945895689828520
:102BB0009385A485B585281B390B4A0B5B0B203008
:102BC000B0E83B07B0E04B07B0E05B0720F02FEF29
:102BD0003FE740E050E0C9010895DC015996ED91CE
:102BE000FC915A97309711F480E008958581811106
:102BF00081E00895CF93DF93EC01898D9A8D009742
:102C000039F00E949A0A898D9A8D14D41A8E198EE1
:102C1000DF91CF910895FC01818D928D009711F085
:102C20000C94520A0895DF93CF930F92CDB7DEB77D
:102C3000FC01818D928D009749F0BE016F5F7F4F3F
:102C400041E050E00E946C0B019719F02FEF3FEF2D
:102C500003C08981282F30E0C9010F90CF91DF9107
:102C60000895EF92FF920F931F93DF93CF930F92EC
:102C7000CDB7DEB77C01DC0159968D919C915A97B6
:102C8000009719F400E010E01FC0BE016F5F7F4F96
:102C900041E050E00E946C0B019719F00FEF1FEF1D
:102CA00013C08981082F10E0D7015996ED91FC914E
:102CB0005A974285538564857585415050406040E0
:102CC0007040CF010E948D09C8010F90CF91DF9114
:102CD0001F910F91FF90EF900895CF93DF93EC0138
:102CE000E98DFA8D309761F013821282CF010E9434
:102CF000A90D9C01E98DFA8D82819381892B31F098
:102D000081E090E09B838A8320E030E0C901DF917D
:102D1000CF910895EF92FF920F931F93CF93DF937C
:102D2000EC01F62EE72E8A011B821A8288EE93E0D0
:102D3000A0E0B0E08C839D83AE83BF838EE392E0FE
:102D4000998388838DE190E0D8D29A8F898F0097FC
:102D500091F0DC018F2D9E2D9C01F9018DE10190F8
:102D60000D928150E1F7CE010C96B8014CE050E095
:102D70000E94B500188EDF91CF911F910F91FF90A7
:102D8000EF900895109286051092870510928A059B
:102D900010928C0582E090E0A0E0B0E080938D0579
:102DA00090938E05A0938F05B09390051092A40583
:102DB0001092AE051092AD0586E392E09093AC05BB
:102DC0008093AB051092B00508952F923F924F92D9
:102DD0005F926F927F928F929F92AF92BF92CF92AB
:102DE000DF92EF92FF920F931F93DF93CF93CDB7B4
:102DF000DEB7C754D0400FB6F894DEBF0FBECDBFCC
:102E0000582E492EFB013A01190184A595A5998BED
:102E1000888B26E332E03F872E8786A58A8B87A59D
:102E20008B8B80A991A9A2A9B3A98C8B9D8BAE8B0A
:102E3000BF8B84A995A9A6A9B7A9888F998FAA8FB6
:102E4000BB8F80AD91ADA2ADB3AD8C8F9D8FAE8F9A
:102E5000BF8F84AD88A3FD9681919191A191B1918D
:102E600089A39AA3ABA3BCA381919191A191B191A4
:102E70008DA39EA3AFA3B8A7808191819AA789A7AC
:102E80001EA61DA63CA72BA718AA7A018E01025FD9
:102E90001F4F3BE2A32EB12CAC0EBD1E4E01089479
:102EA000811C911C34C0D7018C918F3221F408947D
:102EB000E11CF11C2CC0422F4E194D3008F04CE0A3
:102EC000C42EDD24C401B701A6010E94B500F4019F
:102ED000EC0DFD1D1082C5010E949A0AC501B801C2
:102EE000A40121E059D8882351F4E52DF42D138253
:102EF000128286E392E091838083158266C0EC0C97
:102F0000FD1CC8010E949A0AC50158018C01C70125
:102F10006FE270E00E94A3009C01009721F6E61882
:102F2000F708F101F182E082E52DF42DD801129627
:102F30008D919C9113979383828386E392E0918392
:102F4000808314968C911497848315968C91159791
:102F5000858316962D913D914D915C91199726830D
:102F60003783408751871A962D913D914D915C9101
:102F70001D9722873387448755871E962D913D9153
:102F80004D915C91519726873787408B518B529694
:102F90008C915297828B53962D913D914D915C91DE
:102FA0005697238B348B458B568B57962D913D919D
:102FB0004D915C915A97278B308F418F528F5B9642
:102FC0008D919C915C97948F838F852D942DC95BF7
:102FD000DF4F0FB6F894DEBF0FBECDBFCF91DF91AC
:102FE0001F910F91FF90EF90DF90CF90BF90AF9027
:102FF0009F908F907F906F905F904F903F902F9019
:1030000008959F92AF92BF92CF92DF92EF92FF927C
:103010000F931F93DF93CF93CDB7DEB7C657D04042
:103020000FB6F894DEBF0FBECDBFC82E992E8A0111
:10303000D22E43E0A42EB12CAC0EBD1EC501A801BA
:103040009E012F5F3F4FC1DEE980FA80E00EF11E46
:10305000F701808146E352E02885882309F03FC0CC
:103060008D819E819BA38AA359A348A38F818CA3A2
:103070002DA389859A85AB85BC858EA39FA3A8A720
:10308000B9A78D859E85AF85B8898AA79BA7ACA770
:10309000BDA789899A89AB89BC898EA79FA7A8AB50
:1030A000B9AB8D898AAB8E899F89A88DB98D8BAB81
:1030B0009CABADABBEAB8A8D9B8DAC8DBD8D8FAB0C
:1030C00098AFA9AFBAAF8E8D9F8D9CAF8BAF8C2D73
:1030D000992DBE01605E7F4F46E252E09EC0FE0128
:1030E000FF96118210825EAF4DAFFE01EE5BFF4F87
:1030F00010822223A9F02250CE01CD96223048F42E
:103100006BEA75E0A7012D2D0E94CC0F882379F47E
:1031100007C0B501A7012D2D0E94CC0F882321F4F3
:103120008C2D992D05DD7AC0C5010E949A0AF6E022
:10313000DF2259F0FE01E05BFF4F40815181628147
:103140007381CE01CD960E948D099E01265A3F4F74
:10315000FE01FF9680819181F9019383828386E34A
:1031600092E091838083FE01EF5BFF4F8081F90144
:103170008483FE01EE5BFF4F8081F9018583FE01B0
:10318000ED5BFF4F80819181A281B381F90186833C
:103190009783A087B187FE01E95BFF4F8081918112
:1031A000A281B381F90182879387A487B587FE0145
:1031B000E55BFF4F80819181A281B381F901868710
:1031C0009787A08BB18BFE01E15BFF4F8081F901F6
:1031D000828BFE01E05BFF4F80819181A281B381F0
:1031E000F901838B948BA58BB68BFE01EC5AFF4FB4
:1031F00080819181A281B381F901878B908FA18F0A
:10320000B28FFE01E85AFF4F80819181F901948FBE
:10321000838F8C2D992DB901A7017CDD8C2D992DE3
:10322000CA58DF4F0FB6F894DEBF0FBECDBFCF91A7
:10323000DF911F910F91FF90EF90DF90CF90BF90A3
:10324000AF909F900895EF92FF920F931F93CF93AB
:10325000DF93EC01162F5AE2E52EF12CE80EF91E51
:10326000C7010E949A0ACE0161E0412F0E948308A3
:103270008823B9F08E01045F1F4FC801BE0141E0F1
:1032800024D8882331F4C801BE0140E01ED8882329
:1032900041F0C701B8010E94C70C882319F081E0F2
:1032A00001C080E0DF91CF911F910F91FF90EF90CF
:1032B00008958CB58F7B8CBD0895882319F48CB547
:1032C000806202C08CB58F7D8CBD08959CB5937FC4
:1032D000982B9CBD08958AE061E009D58AE061E001
:1032E000C7D48CB580618CBD8CB580648CBD8DE0FD
:1032F00061E0BED48BE061E0BBC40F931F93CF931A
:10330000DF93BC018230910510F462E070E0E0913F
:103310007F06F091800640E050E0A0E0B0E024C0DD
:103320008081918186179707D0F08617970771F4EF
:1033300082819381109729F013969C938E93129714
:103340002CC09093800680937F0627C041155105BD
:1033500019F08417950718F48D01AC01EF01DF0116
:10336000828193819C01F9013097D1F64115510575
:10337000F9F0CA01861B970B8430910580F48A818D
:103380009B810115110521F0F8019383828304C00C
:103390009093800680937F06FE01329645C0FE0121
:1033A000E80FF91F619371930297998388833CC05A
:1033B00080917D0690917E06892B41F480912E02AA
:1033C00090912F0290937E0680937D06409130026B
:1033D000509131024115510541F44DB75EB78091CE
:1033E0002C0290912D02481B590B20917D063091A3
:1033F0007E0624173507B0F4CA01821B930B86178B
:10340000970780F0AB014E5F5F4F8417950750F030
:10341000420F531F50937E0640937D06F90161933E
:10342000719302C0E0E0F0E0CF01DF91CF911F91F6
:103430000F910895CF93DF939C01009709F48FC0FB
:10344000EC0122971B821A8260917F0670918006A0
:103450006115710581F488819981820F931F2091F4
:103460007D0630917E062817390739F5D0937E0600
:10347000C0937D0674C0DB0140E050E0AC17BD078F
:1034800008F1BB83AA83FE0121913191E20FF31F62
:10349000AE17BF0779F48D919C911197280F391FB2
:1034A0002E5F3F4F3983288312968D919C911397FD
:1034B0009B838A834115510571F4D0938006C09394
:1034C0007F064DC012968D919C911397AD01009788
:1034D00011F0DC01D3CFDA011396DC93CE9312976F
:1034E000FA0121913191E20FF31FCE17DF0769F442
:1034F00088819981280F391F2E5F3F4FFA01318350
:1035000020838A819B8193838283E0E0F0E0DB016A
:1035100012968D919C911397009719F0BC01FD01B3
:10352000F6CFAB014E5F5F4FDB018D919C91840F15
:10353000951F20917D0630917E062817390779F472
:10354000309729F41092800610927F0602C01382F1
:1035500012824250504050937E0640937D06DF9188
:10356000CF91089508951F920F920FB60F921124D4
:103570002F933F934F938F939F93EF93FF9380915C
:10358000C00082FD1DC04091C60020910A06309106
:103590000B062F5F3F4F2F73307080910C06909178
:1035A0000D062817390771F0E0910A06F0910B0615
:1035B000E653FA4F408330930B0620930A0602C06D
:1035C0008091C600FF91EF919F918F914F913F9114
:1035D0002F910F900FBE0F901F901895E0915E06EF
:1035E000F0915F06E05CFF4F8191919120813181E4
:1035F000821B930B8F739070892B09F0B3CF0895C2
:103600001F920F920FB60F9211242F933F938F9317
:103610009F93EF93FF9320914E0630914F06809138
:103620005006909151062817390731F48091C10056
:103630008F7D8093C10014C0E0915006F091510637
:10364000E25FF94F208180915006909151060196DA
:103650008F73907090935106809350062093C6000C
:10366000FF91EF919F918F913F912F910F900FBEFE
:103670000F901F901895AF92BF92CF92DF92EF926A
:10368000FF920F931F93CF93DF93EC017A018B018D
:10369000C22EDD24403081EE580780E0680780E0CC
:1036A000780711F0DD24D39471E0A72EB12CEC89BA
:1036B000FD89DD2069F0C50108A002C0880F991FAF
:1036C0000A94E2F7808360E079E08DE390E005C042
:1036D000108260E874E88EE190E0A8019701CDD3F4
:1036E000215030404040504056954795379527959A
:1036F00080E12030380720F0DD2011F0DD24D7CF25
:10370000E889F9893083EA89FB892083E88DF98D7E
:10371000C082EE89FF89408121E030E0C9010C8C34
:1037200002C0880F991F0A94E2F7482B4083EE8964
:10373000FF894081C9010D8C02C0880F991F0A942E
:10374000E2F7482B4083EE89FF894081C9010E8C46
:1037500002C0880F991F0A94E2F7482B4083EE8934
:10376000FF8980810F8C02C0220F331F0A94E2F779
:10377000209528232083DF91CF911F910F91FF90F7
:10378000EF90DF90CF90BF90AF900895DC011C9632
:10379000ED91FC911D97E05CFF4F2191319180816B
:1037A0009181281B390B2F733070C9010895DC01FA
:1037B0001C96ED91FC911D97E05CFF4F20813181BB
:1037C000E054F040DF01AE5BBF4F8D919C911197AB
:1037D0002817390719F42FEF3FEF07C08D919C91FF
:1037E000E80FF91F8081282F30E0C9010895DC011E
:1037F0001C96ED91FC911D97E05CFF4F208131817B
:10380000E054F040DF01AE5BBF4F8D919C9111976A
:103810002817390719F42FEF3FEF10C08D919C91B5
:103820001197E80FF91F20818D919C9111970196B6
:103830008F73907011969C938E9330E0C901089518
:10384000DC0191968C919197882339F05496ED91F3
:10385000FC915597808186FFF9CF91961C9208952F
:10386000CF93DF93EC01EE85FF85E05CFF4F208175
:103870003181E054F0402F5F3F4F2F733070DF01F4
:10388000AE5BBF4F8D919C91119728173907D1F3EB
:10389000E05CFF4F80819181E054F040E80FF91F18
:1038A0006083EE85FF85E05CFF4F31832083EE89E6
:1038B000FF89208181E090E00F8C02C0880F991F62
:1038C0000A94E2F7282B208381E089A3EC89FD8903
:1038D00080818064808381E090E0DF91CF910895C2
:1038E00081E00895109255061092540688EE93E0F8
:1038F000A0E0B0E08093560690935706A093580638
:10390000B09359068EE492E090935306809352064A
:103910008AEC95E090935F0680935E068EE096E0D9
:10392000909361068093600685EC90E09093630627
:103930008093620684EC90E0909365068093640621
:1039400080EC90E0909367068093660681EC90E0AF
:10395000909369068093680682EC90E090936B06E2
:1039600080936A0686EC90E090936D0680936C06D7
:1039700084E080936E0683E080936F0687E08093F7
:10398000700685E08093710681E080937206089549
:10399000CF92DF92EF92FF920F931F93CF93DF931B
:1039A0007C016B018A01C0E0D0E00FC0D6016D91AF
:1039B0006D01D701ED91FC910190F081E02DC701DF
:1039C0000995C80FD91F015010400115110571F755
:1039D000CE01DF91CF911F910F91FF90EF90DF907B
:1039E000CF900895EF92FF920F931F938C01DC010B
:1039F000ED91FC910190F081E02D6DE009957C0145
:103A0000D801ED91FC910190F081E02DC8016AE0B0
:103A100009959C012E0D3F1DC9011F910F91FF902B
:103A2000EF900895CF93DF93EC016115710519F4C0
:103A300020E030E00FC0DB010D900020E9F7119786
:103A4000A61BB70BE881F9810280F381E02DAD015F
:103A500009959C01C901DF91CF910895E3CF0895A5
:103A6000EF92FF920F931F937C01DCDF8C01C70163
:103A7000B9DF080F191FC8011F910F91FF90EF9038
:103A80000895CF93DF93B9D00E946805CEEEDAE1B6
:103A90000E94EB042097E1F3A1DDFACF1F920F9271
:103AA0000FB60F9211242F933F938F939F93AF9351
:103AB000BF938091780690917906A0917A06B09193
:103AC0007B0630917C060196A11DB11D232F2D5F31
:103AD0002D3720F02D570196A11DB11D20937C0696
:103AE0008093780690937906A0937A06B0937B062C
:103AF0008091740690917506A0917606B091770634
:103B00000196A11DB11D8093740690937506A09334
:103B10007606B0937706BF91AF919F918F913F91B9
:103B20002F910F900FBE0F901F9018958FB7F8949C
:103B3000209178063091790640917A0650917B0663
:103B40008FBFB901CA0108959B01AC017FB7F894FA
:103B50008091740690917506A0917606B0917706D3
:103B600066B5A89B05C06F3F19F00196A11DB11D58
:103B70007FBFBA2FA92F982F8827860F911DA11DCF
:103B8000B11D62E0880F991FAA1FBB1F6A95D1F76C
:103B9000BC012DC0FFB7F894809174069091750612
:103BA000A0917606B0917706E6B5A89B05C0EF3FD9
:103BB00019F00196A11DB11DFFBFBA2FA92F982F93
:103BC00088278E0F911DA11DB11DE2E0880F991F5E
:103BD000AA1FBB1FEA95D1F7861B970B885E9340FF
:103BE000C8F2215030404040504068517C4F211570
:103BF00031054105510571F60895789484B58260C8
:103C000084BD84B5816084BD85B5826085BD85B580
:103C1000816085BDEEE6F0E0808181608083E1E82F
:103C2000F0E0108280818260808380818160808367
:103C3000E0E8F0E0808181608083E1EBF0E080816A
:103C400084608083E0EBF0E0808181608083EAE73C
:103C5000F0E08081846080838081826080838081C5
:103C6000816080838081806880831092C100089584
:103C7000CF93DF93482F50E0CA0186559F4FFC0138
:103C800034914A565F4FFA018491882369F190E09C
:103C9000880F991FFC01E858FF4FA591B491FC01D2
:103CA000EE57FF4FC591D491662351F42FB7F89486
:103CB0008C91932F909589238C93888189230BC0B5
:103CC000623061F42FB7F8948C91932F90958923EB
:103CD0008C938881832B88832FBF06C09FB7F8946D
:103CE0008C91832B8C939FBFDF91CF910895482FA8
:103CF00050E0CA0182549F4FFC012491CA018655AD
:103D00009F4FFC0194914A565F4FFA01349133233F
:103D100009F440C0222351F1233071F0243028F4FB
:103D20002130A1F0223011F514C02630B1F0273037
:103D3000C1F02430D9F404C0809180008F7703C093
:103D4000809180008F7D8093800010C084B58F7734
:103D500002C084B58F7D84BD09C08091B0008F778B
:103D600003C08091B0008F7D8093B000E32FF0E01E
:103D7000EE0FFF1FEE57FF4FA591B4912FB7F894A8
:103D8000662321F48C919095892302C08C91892B14
:103D90008C932FBF0895682F70E0CB0182549F4F02
:103DA000FC012491CB0186559F4FFC0144916A563A
:103DB0007F4FFB019491992319F420E030E03CC03F
:103DC000222351F1233071F0243028F42130A1F066
:103DD000223011F514C02630B1F02730C1F0243064
:103DE000D9F404C0809180008F7703C08091800057
:103DF0008F7D8093800010C084B58F7702C084B51A
:103E00008F7D84BD09C08091B0008F7703C0809101
:103E1000B0008F7D8093B000892F90E0880F991FAC
:103E200084579F4FFC01A591B4918C9120E030E024
:103E3000842311F021E030E0C9010895629FD00190
:103E4000739FF001829FE00DF11D649FE00DF11D55
:103E5000929FF00D839FF00D749FF00D659FF00D04
:103E60009927729FB00DE11DF91F639FB00DE11DF1
:103E7000F91FBD01CF0111240895A1E21A2EAA1B3A
:103E8000BB1BFD010DC0AA1FBB1FEE1FFF1FA2170A
:103E9000B307E407F50720F0A21BB30BE40BF50B07
:103EA000661F771F881F991F1A9469F76095709590
:103EB000809590959B01AC01BD01CF0108952F9293
:103EC0003F924F925F926F927F928F929F92AF92AA
:103ED000BF92CF92DF92EF92FF920F931F93CF93F7
:103EE000DF93CDB7DEB7CA1BDB0B0FB6F894DEBF8E
:103EF0000FBECDBF09942A88398848885F846E84B4
:103F00007D848C849B84AA84B984C884DF80EE80FD
:103F1000FD800C811B81AA81B981CE0FD11D0FB606
:103F2000F894DEBF0FBECDBFED010895EE0FFF1F69
:103F30000590F491E02D099410E0C8EDD0E003C0A5
:103F4000FE01F6DF2296CA3DD107D1F7F894FFCFE4
:103F5000253032752F253032752F253464202530D9
:103F600032643A253032643A2530326409005661B1
:103F70006C76653A094F70656E65640A0056616C2F
:103F800076653A09436C6F7365640A004C65616B32
:103F90003A094E6F206C65616B73206465746563CC
:103FA0007465642E0A004C65616B3A09506F737337
:103FB00069626C65206C65616B206465746563740F
:103FC00065643A204D6F7265207468616E203130EF
:103FD00030302067616C6C6F6E7320757365642080
:103FE000696E206120323420686F757220706572AE
:103FF000696F642E0A004C65616B3A09506F7373E8
:1040000069626C65206C65616B20646574656374BE
:1040100065643A20466C6F772072617465203E3D7E
:104020003120474D5020666F722031323020636F4F
:104030006E7365637574697665206D696E757465F8
:10404000732E0A006C6F672E747874005379737442
:10405000656D2052657365740A0056616C76653A29
:10406000094F70656E0A004C65616B3A09436C65D7
:10407000617265640A002F00FFFFFFFF8000810668
:104080000000000000005A0FC81C00000000B1151D
:104090006D16C915131631160B1600000000301CE2
:0A40A000C81CC61BF71BD71B201C11
:00000001FF
